:020000040000fa
:080000000002040000000000f2
:020000040000fa
:04000800540300009d
:020000040000fa
:04000c005403000099
:020000040000fa
:040010005403000095
:020000040000fa
:040014005403000091
:020000040000fa
:04001800540300008d
:020000040000fa
:04001c005403000089
:020000040000fa
:040020005403000085
:020000040000fa
:040024005403000081
:020000040000fa
:04002800fa020000d8
:020000040000fa
:04002c005403000079
:020000040000fa
:040030005403000075
:020000040000fa
:040034005403000071
:020000040000fa
:04003800540300006d
:020000040000fa
:04003c005403000069
:020000040000fa
:040040005403000065
:020000040000fa
:040044005403000061
:020000040000fa
:04004800540300005d
:020000040000fa
:04004c005403000059
:020000040000fa
:040050005403000055
:020000040000fa
:040054005403000051
:020000040000fa
:04005800540300004d
:020000040000fa
:04005c005403000049
:020000040000fa
:040060005403000045
:020000040000fa
:040064005403000041
:020000040000fa
:04006800540300003d
:020000040000fa
:04006c005403000039
:020000040000fa
:040070005403000035
:020000040000fa
:040074005403000031
:020000040000fa
:040078001803000069
:020000040000fa
:04007c005403000029
:020000040000fa
:040080005403000025
:020000040000fa
:040084005403000021
:020000040000fa
:04008800540300001d
:020000040000fa
:04008c005403000019
:020000040000fa
:040090005403000015
:020000040000fa
:040094005403000011
:020000040000fa
:04009800540300000d
:020000040000fa
:04009c003603000027
:020000040000fa
:0400a0005403000005
:020000040000fa
:0400a4005403000001
:020000040000fa
:0400a80054030000fd
:020000040000fa
:0400ac0054030000f9
:020000040000fa
:0400b00054030000f5
:020000040000fa
:0400b40054030000f1
:020000040000fa
:0400b80054030000ed
:020000040000fa
:0400bc0054030000e9
:020000040000fa
:0400c00054030000e5
:020000040000fa
:0400c40054030000e1
:020000040000fa
:0400c80054030000dd
:020000040000fa
:0400cc0054030000d9
:020000040000fa
:0400d00054030000d5
:020000040000fa
:0400d40054030000d1
:020000040000fa
:0400d80054030000cd
:020000040000fa
:0400dc0054030000c9
:020000040000fa
:0400e00054030000c5
:020000040000fa
:0400e40054030000c1
:020000040000fa
:0400e80054030000bd
:020000040000fa
:0400ec0054030000b9
:020000040000fa
:0400f00054030000b5
:020000040000fa
:0400f40054030000b1
:020000040000fa
:0400f80054030000ad
:020000040000fa
:0400fc0054030000a9
:020000040000fa
:0401000054030000a4
:020000040000fa
:0401040054030000a0
:020000040000fa
:04010800540300009c
:020000040000fa
:04010c005403000098
:020000040000fa
:040110005403000094
:020000040000fa
:040114005403000090
:020000040000fa
:04011800540300008c
:020000040000fa
:04011c005403000088
:020000040000fa
:040120005403000084
:020000040000fa
:040124005403000080
:020000040000fa
:04012800540300007c
:020000040000fa
:04012c005403000078
:020000040000fa
:040130005403000074
:020000040000fa
:040134005403000070
:020000040000fa
:04013800540300006c
:020000040000fa
:04013c005403000068
:020000040000fa
:040140005403000064
:020000040000fa
:040144005403000060
:020000040000fa
:04014800540300005c
:020000040000fa
:04014c005403000058
:020000040000fa
:040150005403000054
:020000040000fa
:040154005403000050
:020000040000fa
:04015800540300004c
:020000040000fa
:04015c005403000048
:020000040000fa
:040160005403000044
:020000040000fa
:040164005403000040
:020000040000fa
:04016800540300003c
:020000040000fa
:04016c005403000038
:020000040000fa
:040170005403000034
:020000040000fa
:040174005403000030
:020000040000fa
:04017800540300002c
:020000040000fa
:04017c005403000028
:020000040000fa
:040180005403000024
:020000040000fa
:040184005403000020
:020000040000fa
:04018800540300001c
:020000040000fa
:04018c005403000018
:020000040000fa
:040190005403000014
:020000040000fa
:040194005403000010
:020000040000fa
:04019800540300000c
:020000040000fa
:04019c005403000008
:020000040000fa
:0401a0005403000004
:020000040000fa
:0401a4005403000000
:020000040000fa
:0401a80054030000fc
:020000040000fa
:0401ac0054030000f8
:020000040000fa
:0401b00054030000f4
:020000040000fa
:0401b40054030000f0
:020000040000fa
:0401b80054030000ec
:020000040000fa
:0401bc0054030000e8
:020000040000fa
:0401c00054030000e4
:020000040000fa
:0401c40054030000e0
:020000040000fa
:0401c80054030000dc
:020000040000fa
:0401cc0054030000d8
:020000040000fa
:0401d00054030000d4
:020000040000fa
:0401d40054030000d0
:020000040000fa
:0401d80054030000cc
:020000040000fa
:0401dc0054030000c8
:020000040000fa
:0401e00054030000c4
:020000040000fa
:0401e40054030000c0
:020000040000fa
:0401e80054030000bc
:020000040000fa
:0401ec0054030000b8
:020000040000fa
:0401f00054030000b4
:020000040000fa
:0401f40054030000b0
:020000040000fa
:0401f80054030000ac
:020000040000fa
:0401fc0054030000a8
:020000040000fa
:0402000054030000a3
:020000040000fa
:04020400540300009f
:020000040000fa
:04020800540300009b
:020000040000fa
:04020c005403000097
:020000040000fa
:040210005403000093
:020000040000fa
:04021400540300008f
:020000040000fa
:04021800540300008b
:020000040000fa
:04021c005403000087
:020000040000fa
:040220005403000083
:020000040000fa
:04022400540300007f
:020000040000fa
:04022800540300007b
:020000040000fa
:04022c005403000077
:020000040000fa
:040230005403000073
:020000040000fa
:04023400540300006f
:020000040000fa
:04023800540300006b
:020000040000fa
:04023c005403000067
:020000040000fa
:040240005403000063
:020000040000fa
:04024400540300005f
:020000040000fa
:04024800540300005b
:020000040000fa
:04024c005403000057
:020000040000fa
:040250005403000053
:020000040000fa
:04025400540300004f
:020000040000fa
:04025800540300004b
:020000040000fa
:04025c005403000047
:020000040000fa
:040260005403000043
:020000040000fa
:04026400540300003f
:020000040000fa
:04026800540300003b
:020000040000fa
:04026c005403000037
:020000040000fa
:040270005403000033
:020000040000fa
:04027400540300002f
:020000040000fa
:04027800540300002b
:020000040000fa
:04027c005403000027
:020000040000fa
:040280005403000023
:020000040000fa
:10040000cf4621000eff27000e01880000000000eb
:10041000000020000000e000020032000001200087
:100420002002880014000700a10007000000e0007f
:1004300003003a00402121000100200002003700a3
:100440000000200001002000810f70000100320038
:100450000f000700000020000000e0000200320052
:1004600000000200000000008e0c020000000000ee
:100470000040da000000fe00a00020000000e000c4
:1004800002003200002020009001880000000600d9
:10049000a1028800800478000000eb001f003700f4
:1004a000e284440054a0b4009905ba00e2844400f8
:1004b00054a0b4009906ba00e284440054a0b400e9
:1004c0000006eb00476fde00fd07b200ae018800ba
:1004d000636ce10003003a000ad801000000eb0061
:1004e0000e003700606ce10008003a00004deb00a0
:1004f0000a05e800020039003420ec000af0a000f0
:100500008b05e900f9ff3e00040037006168e10057
:10051000010032000086eb000b00070019c7ba008b
:100520000e04e0001905ba0003003a000a00e000da
:10053000dbff3a0000000600fe07b200ae028800b2
:100540008a047800f5ff37000cd0a300e20f4d00bd
:100550001c00390089027800354dba000a05e80010
:10056000020039003420ec000af0a0008b05e900fd
:100570000f003200254dba000a05e80002003900dc
:100580003420ec000af0a0008b05e90008003200de
:100590000c00e0000600320015cdba000a05e800a4
:1005a000020039003420ec000af0a0008b05e900bd
:1005b0008984e80054a0b4000b00e000e2ff3a0098
:1005c000000006009902ba00055d78008b05e9007d
:1005d000f7ff3200c82ade00055d78008b05e900d0
:1005e000f3ff32000c00e000f1ff320019ddba0029
:1005f000eeff37003600f800809fbe00829fbe00ed
:10060000849fbe00869fbe000000fa007c060700a3
:100610000008a9000080fa004f03be004f02be0090
:100620004f01be004f00be003600f900004006003a
:100630003600f800809fbe00829fbe00849fbe00ef
:10064000869fbe000000fa00700607000288a9001d
:100650000080fa004f03be004f02be004f01be00f3
:100660004f00be003600f900004006003600f800da
:10067000809fbe00829fbe00849fbe00869fbe00fa
:100680000000fa007006070003a8a9000080fa0025
:100690004f03be004f02be004f01be004f00be0020
:1006a0003600f900004006000040da000000fe00bd
:1006b000000005006022b800060220000000d00003
:1006c0008180d2000482d2008582d2000000a00086
:1006d0000202520083825a000300310002024200eb
:1006e00083824a000000a1000603e900f3ff3a00fc
:0406f0000000060000
:020000040000fa
:1006f4007878000078780000787800007878000036
:040704007878000001
:020000040000fa
:100708000800fa000040eb0020479800ae020700fe
:100718000040eb00b80607000000eb00000f78006f
:100728000300370000c0eb00da0607001e0fe800e0
:10073800f00420009e007800808f5000f9ff3600fa
:10074800970207000000eb00000f78001000370048
:10075800a1c4b3006011b8000040eb0030020700ec
:10076800de010700204798002e409000e14f50001e
:100778000c003200f07c20009e007800808f500032
:1007880002003a0000c1b300030137001e0fe80061
:10079800f07c20009e007800808f5000ecff36002f
:1007a8000100370000000000420207000004e000da
:1007b80002003a0010c1b300f700370031c4b3009b
:1007c800a21a20000300200080c0b3001402070012
:1007d800c2010700204798002e409000e14f5000ca
:1007e8001d0032000000eb00000f780015003700f4
:1007f800300207000004e00002003a0010c1b30014
:10080800e5003700c1c7b3006011b80010c0b300dd
:1008180003020700b1010700204798002e4090000e
:100828000004e0009c003200f07c20009e0078006c
:10083800808f500002003a0020c1b300d600370074
:100848001e0fe800f07c20009e007800808f50008a
:10085800e7ff3600930037002e409000e14f50002c
:100868008b003a00ba01070020079800310798006a
:100878002e00900020479800ae409000a0cab30018
:1008880080cf50000200320030c1b300c2003700f0
:100898002e019000be01900000f020000100200011
:1008a80002027800030178008001780001007800d6
:1008b80003026200000061008000eb00c000dd0060
:1008c800000020000001be006120b8000001710096
:1008d80081817100481add004810de0000007200b6
:1008e800c818de00204798002e409000e14f5000c5
:1008f8000200320040c1b300a7003700ed01070035
:100908000004e00002003a0010c1b300a200370062
:10091800e1c7b3006011b800a0c3b300c00107006d
:100928006e010700204798002e409000e14f5000cc
:10093800020032002e409000970037008401070023
:1009480020079800310798002e019000be01900002
:1009580000002800f10f200002027800030178004f
:100968008001780001007800030262000000610045
:100978008000eb00c000dd00000020000001be0088
:100988006120b80000017100818171000000280019
:10099800f10f2000800f5100818f590002003200b2
:1009a80040c1b3007c003700c20107000004e0002a
:1009b80002003a0010c1b3007700370011c4b30039
:1009c8001200200003002000b0c3b3009401070008
:1009d80042010700204798002e409000e14f500048
:1009e800020032002e4090006b0037000000eb0040
:1009f800000f780021003700ae0107000004e00076
:100a080002003a0010c1b3006300370021c3b300ed
:100a18006011b80070c3b300810107002f010700ff
:100a280020479800a30107000004e00002003a00f4
:100a380010c1b30058003700b1c3b3000200200052
:100a48000300240090c2b3007501070023010700ca
:100a5800204798002e4090000004e000100032006b
:100a6800f07c20009e007800808f500002003a0041
:100a780020c1b300480037001e0fe800f07c2000ba
:100a88009e007800808f5000dbff3600050037009d
:100a98002e409000400037000000000001003700a1
:100aa80000000000830107000004e00002003a0093
:100ab80010c1b3003800370081c4b3006011b8001a
:100ac800b0c3b3005601070004010700204798008f
:100ad8002e4090000004e000020032002e409000fa
:100ae8002d003700730107000004e00002003a00ff
:100af80010c1b30028003700a1c0b30002202000b5
:100b08000300200000c1b30045010700f3000700ff
:100b1800204798002e4090000004e00002003200b8
:100b28002e4090001c003700620107000004e0001e
:100b380002003a0010c1b30017003700e1c7b30044
:100b48006011b800a0c3b30035010700e300070037
:100b5800204798002e4090000004e0000200320078
:100b68002e4090000c003700f9000700200798007d
:100b7800310798002e009000be0090004e08de005d
:100b88000040780012f0b7008f01070010c0b300d2
:100b980099050700a0cab3000080fa00000006000b
:100ba8000400fa00204798002e4090000004e0005e
:100bb80002003a0010c0b300204798000040eb0044
:100bc800004f78000b003700cdfe07001047980053
:100bd8009e409000a0cab30080cf50000a003200a7
:100be8007901070000a8210061002000f105070035
:100bf8001e4fe8002e4090009e40780080cf5000a5
:100c0800f1ff390001003700000000001e4090008d
:100c18000080fa00000006000800fa00881f78002b
:100c280020079800310798000000eb00000f7800bb
:100c38000d00370000c0eb0096050700204798001c
:100c48002e409000e24f40000c003200f07c200063
:100c58009e007800808f500002003a0050c1b30017
:100c68001b0037001e0fe800f07c20009e00780073
:100c7800808f5000efff36000100370000000000b1
:100c88000000eb00000f7800060037002e009000ef
:100c98001e04400000c0eb007e050700004c7800f1
:100ca8001e0fe8003e0090009e007800808f5000e4
:100cb800f6ff390000c0eb007605070020479800d2
:100cc80000c0eb0073050700204798000040eb00c8
:100cd8004f0478000080fa00000006000800fa00bf
:100ce8001007980022079800330798002c01070086
:100cf80012d0bf00e24f500008003a002e019000c9
:100d0800be0190004918dd00c710de0081007000a8
:100d18004910dd002007980031079800e50007001a
:100d28000004e00002003a0010c1b30012003700ce
:100d380080c0eb002e019000be01900010c1b300ee
:100d4800b700070065000700004f78001e407800d4
:100d58000004e000020032001e4078000600370060
:100d6800012020001e009000abff0700004f780014
:100d7800150107001e4078000080fa0000000600f8
:100d88000a00fa00200798003207980043079800e5
:100d98000301070012d0bf00e24f500008003a00dc
:100da8003e019000ce0190004918dd00c710de001a
:100db800810070004910dd00300798004107980055
:100dc800bc0007000004e00002003a0010c1b300b4
:100dd8004000370080c0eb003e019000ce0190003b
:100de80080c1b3008e0007003c0007002047980030
:100df8002e4090000004e000020032002e409000d7
:100e080034003700e0cfb3002205070020479800e0
:100e18000000eb00000f7800060037002e0090005d
:100e28001e004000104078001a050700204798006f
:100e38001e0fe800f01f20009e007800808f5000f1
:100e4800f6ff360000c0eb001205070020479800a7
:100e580000c0eb000f0507002047980000c0eb001a
:100e68000c050700204798002e4090000080fb00ea
:100e78006e0060000080d100204798008d000700b8
:100e88000004e00002003a0010c1b300110037006e
:100e9800cd0007002e409000e24f500002003a00bb
:100ea80060c1b3000b0037002e409000e54f5000a2
:100eb80002003a0070c1b300060037002e409000cf
:100ec800e64f500002003a0080c1b300010037002d
:100ed800a0c0b3000080fa00000006000200fa007b
:100ee80000c0eb00eb040700004f780000c0eb00e7
:100ef800e8040700004f78001e4078000080fa00e0
:100f0800000006000400fa0000c0eb00e10407003e
:100f1800004f780000c0eb00de0407000080fb00f3
:100f28001007980000c0eb00da040700004f7800b3
:100f38001e009000c800dd001e80fb00010070004c
:100f4800100798001e0090000080fa0000000600bc
:100f58000600fa0000c0eb00ce0407000080fb008a
:100f68008000eb00008fbe0000c0eb00c904070042
:100f7800404798001e0078009e0090004809dd0058
:100f8800c801de00830171004801dd004e40900079
:100f98000080fb008000eb00001f710001977100ca
:100fa80000c0eb00bb040700404798001e00780013
:100fb8009e0090004809dd00c801de008301710031
:100fc8004801dd004e4090000080fb008000eb00ef
:100fd800001f71000197710000c0eb00ad0407000d
:100fe800404798001e0078009e0090004809dd00e8
:100ff800c801de00830171004801dd004e40900009
:101008000080fb008000eb00001f71000197710059
:101018001e0078009e0090000080fa000000060084
:101028000800fa00004f780012079800230798007c
:10103800614798001e64a0001e40780095040700d0
:101048001e009000ae0090004808de0000407800c6
:10105800900407001e009000ae0090004008de00db
:10106800004078008b0407001e009000ae0090003e
:101078004809dd004800de0000007100c808de00f5
:1010880000407800830407001e00900000407800ac
:10109800800407006e4090000080fb0000004000c4
:1010a800004078000004a0007a0407000080fa00dd
:1010b800000006000400fa000000eb00000f7800b2
:1010c8000d00370000c0eb007204070020479800ad
:1010d8002e409000e14f40000c003200f07c2000d0
:1010e8009e007800808f500002003a000040eb001c
:1010f800080037001e0fe800f07c20009e007800f2
:10110800808f5000efff360001003700000000001c
:101118002e4090000080fa00000006000000fa004f
:101128000c000700e1cdb300814f500005003200ec
:101138001430a9001410a9001450a9002f000700aa
:1011480002003700270007001430a8000080fa00ca
:10115800000006000000fa001100070000fa200055
:1011680001002000930407001700070000fa200080
:10117800010020008f040700917080000004200007
:10118800008060000000e00002003200e0cdb30003
:10119800010037000040eb000080fa000000060064
:1011a8000000fa00807080000060a1008070880054
:1011b800a07080000060a100a070880000000000fe
:1011c8000080fa00000006000000fa00807080002d
:1011d8000060a00080708800000000000080fa0015
:1011e800000006000000fa00207080000010a00037
:1011f800207088000080fa00000006000000fa0055
:10120800207080000010a100207088000080fa0083
:10121800000006000000fa0011aea90015aea800f3
:1012280010aea90014aea90001d0bf00e14f5000d4
:10123800010032002e0307000080fa0000000600bb
:101248000200fa00004f780015aea9001e40780091
:101258005903070015aea8000080fa000000060038
:101268000400fa002047980015aea9002e4090000f
:10127800510307000040eb004f030700004f7800c0
:1012880015aea8001e4078000080fa000000060095
:101298000800fa0020479800210798006247980044
:1012a80015aea9002e4090000054a000420307008c
:1012b8000040eb00004f7800060037001e80fb005e
:1012c800ae00900000804000104078003a0307000c
:1012d8001e4fe8006e4090009e40780080cf50007e
:1012e800f6ff390015aea8000080fa0000000600dd
:1012f8000e00fa004007980051079800424f9800e6
:1013080014aea9000e0078008040eb000148780078
:101318001e4078000004a000004f78001e407800ae
:101328000014a100004f78001e4078000024a1009e
:10133800004f78001e4078000034a000004f78006d
:101348001e4078000044a100004f78001e4078003d
:101358000054a100004f78001e4078000064a100ee
:10136800004f78000e00780012c0b30080007800ab
:101378000040eb00c6ff07000e00e8008040eb00cd
:10138800014878001e4090000004a0001047980013
:101398000e00e80012c0b3008000780010c0b3004f
:1013a800bbff07000e80e8008040eb000148780092
:1013b8002e4090000004a000204798000e80e8000e
:1013c80012c0b3008000780020c0b300b0ff07004f
:1013d800630047008040eb00014878003e409000e1
:1013e8003040b300304798006300470012c0b30094
:1013f8008000780030c0b300a5ff070064004700f4
:101408008040eb0001487800ce40900000cfb30048
:1014180000c060003040b300404798004e40900044
:101428006f4060000044a0004047980064004700f7
:1014380012c0b3008000780040c0b30094ff0700da
:10144800650047008040eb00014878004e48900056
:101458000074a1000074a1005e41900001c8b300af
:101468008140610000c07000504798006500470047
:1014780012c0b3008000780050c0b30084ff07009a
:10148800660047008040eb00014878006e409000fd
:101498000004a000604798006e4090006040b300d0
:1014a800604798006e4090000034a00060479800a4
:1014b8006600470012c0b3008000780060c0b30027
:1014c80073ff070052c0b300de009000a0c0b30055
:1014d8006fff070052c0b300ce00900000c1b300f8
:1014e8006bff0700670047008040eb000148780069
:1014f800fe40900000ccb30000c060000054a00083
:10150800704798006700470012c0b3008000780059
:1015180010c1b3005eff07000080fa00000006005b
:101528000200fa0010ceb30045ff070014aea90070
:101538000e0078008040eb00014878001e407800db
:101548000004a100004f78001e4078000014a0009d
:10155800004f78001e4078000024a100004f78005a
:101568001e4078000034a000004f78001e4078002c
:101578000044a100004f78001e4078000054a100ec
:10158800004f78001e4078000064a100004f7800ea
:101598000e00780012c0b300800078000040eb0015
:1015a8003bff07000e00e8008040eb000148780090
:1015b8001e4090000064a000104798001e40900054
:1015c8000044a000104798001e4090000054a0005e
:1015d800104798000e00e80012c0b30080007800a1
:1015e80070c0b3002aff07000080fa000000060060
:1015f8000200fa000e0078008040eb0001487800f5
:101608001e4078000004a000004f78001e407800bb
:101618000014a000004f78001e4078000024a100ac
:10162800004f78001e4078000034a000004f78007a
:101638001e4078000044a100004f78001e4078004a
:101648000054a100004f78001e4078000064a100fb
:10165800004f78000e00780012c0b30080007800b8
:101668000040eb000aff07000e00e8008040eb0096
:10167800014878001e4090000064a00010479800c0
:101688001e4090000044a000104798001e409000a3
:101698000054a000104798000e00e80012c0b300e4
:1016a8008000780070c0b300f9fe070020ceb300b8
:1016b800e3fe070014aea8000080fa000000060050
:1016c8000200fa00881f78000004780015aea9000f
:1016d80070c0b300380207000040eb003602070074
:1016e800004f780015aea8000e007800104c780066
:1016f800080078004f0478000080fa000000060017
:101708000a00fa0030079800014f98006900470066
:10171800ebff07009e489000414798004e4090001c
:10172800704060000004e0000b00320064004700d5
:101738008040eb00014878004e4090000054a00023
:10174800404798006400470012c0b300800078004a
:1017580070c0b300cefe070015aea90000cab300e2
:10176800150207000040eb00004f78000600370024
:101778001e80fb00be0090000080400010407800f2
:101788000d0207001e4fe8000e4890009e407800aa
:1017980080cf5000f6ff390015aea80014aea8009f
:1017a800f00f200010079800000000001e009000b5
:1017b80000f0a7000000ea000000ea004f00de0089
:1017c800004078009e0090008100e9001107980011
:1017d8000004e000f5ff3a0014aea90014aea8001a
:1017e8000080fa00000006000600fa0010079800c2
:1017f8004147980015aea90010c6b300ee010700d6
:101808000040eb00ec010700104798000040eb0097
:10181800004f7800080037000040eb00e6010700a1
:101828009e009000804878001e0090000000e800ac
:10183800100798001e4fe8004e4090009e40780028
:1018480080cf5000f4ff390015aea8000e00e80064
:1018580012c0b3008000780070c0b3008cfe07008f
:1018680020ceb30076fe07000080fa0000000600d4
:101878000200fa000e00e80091ff07000040eb00ac
:10188800004f78001e4090000042b2000004e000c3
:101898000300320010c0b300004f78000600370084
:1018a8001e409000704060000004e000020032001a
:1018b80020c0b300004f78001e4078000080fa0076
:1018c800000006000200fa000e0078007cff070006
:1018d8001e0078004600de00614060000080fa00cb
:1018e800000006000400fa000e80e80074ff0700fc
:1018f800ae409000014f78000e00780012c0b3008f
:101908008000780070c0b30061fe07000080fa0014
:10191800000006004e00fa00e4004700a237280045
:1019280004000900b258780069024700f53728001a
:1019380004000900355a780010c0b30000f0b70061
:101948000230ef000170ef001430a9001410a90054
:101958001450a90030802000010020002080880059
:10196800318088000870ef007f0207000000eb005c
:10197800000f780005003700600121001e004000bc
:101988008040eb00014878001e0fe800f01f20009f
:101998009e007800808f5000f7ff3600e400470073
:1019a80069004700c2c0b30051fe07000000eb0009
:1019b800000f780010003700207080000000d10070
:1019c800614060000004a200614060000080fb00ec
:1019d8006100600000004000217080000110a1003b
:1019e800010070002070880000682900810920002b
:1019f800700207001e0fe8001e007800e90f500073
:101a0800edff3600040ea8000870ef00f8fe07008e
:101a18000000000008d0bf000004e000fdff320015
:101a280008d0bf00e14f50000d003a006e0047009b
:101a380001c2b3006cff0700ee004700a0002100c0
:101a4800110278009102900021039000b1039000e8
:101a58000498be000690be00000000000c0037008d
:101a68006000b800b0a08800c1a088006000b8007d
:101a780010a1880021a188006000b800f0a08800ab
:101a880001a188006000b800d0a08800e1a088000b
:101a9800f0ff200010079800000000001e009000d2
:101aa80000f0a7000000ea000000ea004f00de0096
:101ab800004078009e0090008100e900110798001e
:101ac8000004e000f5ff3a00a000210010017800b2
:101ad80090019000a0002100b0009000200090002c
:101ae8000200400083804800b0a08800c1a08800a0
:101af800a00021001001780090019000a0002100b2
:101b0800b000900020009000000051008180590032
:101b1800d0a08800e1a08800a00021001001780072
:101b280090019000a0002100b000900020009000db
:101b3800809ab900828bb9008602780005024200bb
:101b48000010b8000102420084007800f0a088006c
:101b580001a18800a0002100b000900020009000a2
:101b6800e00f5000e08f58000c003200a000210068
:101b78001002780090029000a0002100b0009000b0
:101b8800200090000001be000400be00c7fa070054
:101b980010a1880021a1880004003700100020004f
:101ba8000100200010a1880021a18800e002200087
:101bb8000e0040006741210007000900371878002f
:101bc8000001b1000870ef0055fe0700e002200098
:101bd8000e00400001c2b300c9fe0700000000006b
:101be80008d0bf000004e000fdff320008d0bf00ad
:101bf800e14f500002003200040ea9000c0037002b
:101c0800207080000000d100614060000004a20044
:101c1800614060000080fb0061006000000040003f
:101c2800217080000110a100010070002070880060
:101c380000a8210061002000de01070072ff3700c4
:101c48000000fa00aa00070000a821006100200097
:101c5800d801070021c5b300f0c2b3001d0007007a
:101c680000a8210061002000d201070031c0b300a4
:101c7800d0c2b3001700070011c4b300c0c2b3003c
:101c8800140007008040eb00b0c2b3001100070049
:101c980041c0b30080c2b3000e00070021c0b300ea
:101ca800a0c2b3000b00070051c1b30050c0b3007d
:101cb8000800070051c1b30090c2b3000500070037
:101cc80000902000d1032000ba0107000080fa002c
:101cd800000006000200fa00004f78001147980043
:101ce8001e00fb0000004000004f7800142ea900e1
:101cf8001e407800b00007001e409000ae000700ac
:101d0800142ea8000080fa00000006000400fa0063
:101d1800204798000040eb00004f78002e409000cc
:101d28000080fb0000004000004078000004a00094
:101d380020479800142ea9002e4090009e0007000e
:101d4800004f78000040eb009b000700004f780030
:101d5800142ea8001e4078000080fa00000006003b
:101d68001200fa00142ea90030c2b3009200070036
:101d78000000eb00000f7800070037000040eb0080
:101d88008d000700804078001e017800680041003f
:101d9800017778001e0fe8001e007800e80f500059
:101da800f6ff3400142ea800800c2000010020004b
:101db800800107000000eb00100798002f00370093
:101dc8001e0090000000e00003003a002000200000
:101dd80020079800030037002e00900063004000a1
:101de800200798002e00900068004000ee40780020
:101df800614798006e40900062406000704798000c
:101e08007e4090000004e00013003a001e0090009d
:101e1800e300b900680040006e4078000000fb0055
:101e2800c800dd001e009000e300b9000000e800d3
:101e3800680040006e4078000000fb0081007000e0
:101e48001e00900000014000604221000000410097
:101e580001087800060037001e009000800040004e
:101e680060422100008040008000eb0001087800fb
:101e78001e0090000000e800100798001e00900067
:101e8800e20f5000ceff34000080fa000000060088
:101e98000200fa00142ea90030c2b3004600070061
:101ea8000000eb00000f7800070037000040eb004f
:101eb8004100070080407800c04221001e00400019
:101ec800014878001e0fe800e00320009e0078001b
:101ed800808f5000f5ff3400142ea800800c2000dd
:101ee80001002000330107000080fa00000006000e
:101ef8000000fa0041e2a900a01320001012880097
:101f08004422ef00000028000012880010c0b3002f
:101f180001f0b7000080fa00000006000200fa0095
:101f2800004f780041e2a9001e407800e14f5000c0
:101f380003003a00a01320001012880002003700a6
:101f480080132000101288004422ef0000002800af
:101f5800001288000080fa00000006000400fa0061
:101f6800000f7800110798000000000000128000a0
:101f7800620060000000e000fcff3a001e007800ec
:101f8800104078000080fb0040128800000000002c
:101f980000128000610060000000e000fcff3200d9
:101fa80040128000804078001e00900001487800b0
:101fb8000080fa00000006000400fa00204798009c
:101fc8000e80e8008e007800e4ff07001e407800cd
:101fd8000080fa00000006000400fa00204798007c
:101fe8000e80e8008e007800dcff07001e407800b5
:101ff8000080fa00000006000000fa000080fa00e5
:10200800000006000000fa00207080000000d100e7
:10201800614060000004a200614060000080fb0095
:102028006100600000004000217080000110a100e4
:1020380001007000207088000080fa00000006008f
:102048000200fa000040eb00004f7800207080008a
:102058000000d100614060000004a20061406000ff
:102068000080fb00610060000000400021708000db
:102078000110a1000100700020708800fcfd07001d
:10208800004f78001e4078000004e0000500320090
:102098001e417800810021008248780011fe070067
:1020a8000800370007fe07000004e00004003200c3
:1020b80010c0b30008f0b7000afe0700010037009f
:1020c80008fe07000080fa00000006000000fa0081
:1020d8000008a900c208a9002008a9000288a900d0
:1020e800c228a9002288a80003a8a900c248a800fd
:1020f80023a8a8000080fa00000006000000fa00eb
:102108000e2eef001e2eef00042eef0020042000fc
:10211800a0708800c0012000007088000021210004
:10212800807088000c2eef001c2eef000a2eef00a6
:102138001a2eef00062eef00162eef00113a80003f
:10214800f00b200000816000600420007105200071
:1021580023742000804978008149780082497800fa
:1021680001358000f00f28008080600000402200c8
:1021780001007000003588001135800000f82f003c
:10218800008060004001b3001035880041348000b1
:1021980000fc2f00008060009000b30040348800ed
:1021a80041348000f00f2c000080600000b0a000d7
:1021b800403488006136800000f82f00808060007d
:1021c800c00220000100700060368800103a8000cc
:1021d800000178000260a000600420007105200062
:1021e800237420008049780081497800824978006a
:1021f8000080fa00000006000200fa00004f780094
:1022080061e2a9001e407800e14f500003003a0047
:10221800a01320001013880002003700801320004c
:10222800101388006422ef000000280000138800c3
:102238000080fa00000006000400fa00000f780091
:102248001107980000000000001380006200600081
:102258000000e000fcff3a001e0078001040780003
:102268000080fb004013880000000000001380007d
:10227800610060000000e000fcff320040138000b5
:10228800804078001e009000014878000080fa0025
:10229800000006000400fa00204798000e80e800bd
:1022a8008e007800e4ff07001e4078000080fa00e6
:1022b800000006000000fa00e0002000303a880024
:1022c800213a8000f0f32f0000806000203a880057
:1022d800213a800000fe2f0000806000203a88002c
:1022e8003200200080072000a1092000337420005c
:1022f800804978008149780082497800103a800046
:1023080012002000600420007105200023742000c2
:1023180080497800814978008249780000000000ef
:10232800113a800000002700808060000000230030
:10233800808f5000faff3a0000000000113a800038
:1023480000022000008060000000e000fbff320077
:102358000080fa00000006000000fa00c3e8a800a8
:102368000080fa00000006000000fa00d1ff070014
:1023780062ff07001d00070054ff070067fb070006
:10238800a0808000620060000000e00005003200cc
:10239800dbf80700a1cab300814f500001003a00e2
:1023a80096fb0700ecff07009afb07000080fa0085
:0423b800000006001b
:020000040000fa
:1023bc00f03fb1000180b10006003500ee030900ca
:1023cc0000000000403fb1000180b100fbff3d0068
:1023dc001000b000203fb000020035000080090062
:0823ec000000000000000600e3
:020000040000fa
:1023f4000000fa005142800080ff2f00008060003e
:102404003000b3005042880071428000f0f82f0081
:10241400008060000050a000704288000080fa0034
:0424240000000600ae
:020000040000fa
:10242800261400004600000080000000161000007e
:1024380010040000800000000010000012000000de
:10244800800000001210000004000000800000005e
:042458000000000080
:020000040000fa
:020000040005f5
:045fe000cfff0000ef
:020000040000fa
:020000040005f5
:045fe400ffff0000bb
:020000040000fa
:020000040005f5
:045fe8007fff000037
:020000040000fa
:020000040005f5
:045fec005eff000054
:020000040000fa
:020000040005f5
:045ff00038ff000076
:020000040000fa
:020000040005f5
:045ff400ffff0000ab
:00000001FF
