:020000040000fa
:080000000002040000000000f2
:020000040000fa
:040008005803000099
:020000040000fa
:04000c005803000095
:020000040000fa
:040010005803000091
:020000040000fa
:04001400580300008d
:020000040000fa
:040018005803000089
:020000040000fa
:04001c005803000085
:020000040000fa
:040020005803000081
:020000040000fa
:04002400580300007d
:020000040000fa
:04002800fe020000d4
:020000040000fa
:04002c005803000075
:020000040000fa
:040030005803000071
:020000040000fa
:04003400580300006d
:020000040000fa
:040038005803000069
:020000040000fa
:04003c005803000065
:020000040000fa
:040040005803000061
:020000040000fa
:04004400580300005d
:020000040000fa
:040048005803000059
:020000040000fa
:04004c005803000055
:020000040000fa
:040050005803000051
:020000040000fa
:04005400580300004d
:020000040000fa
:040058005803000049
:020000040000fa
:04005c005803000045
:020000040000fa
:040060005803000041
:020000040000fa
:04006400580300003d
:020000040000fa
:040068005803000039
:020000040000fa
:04006c005803000035
:020000040000fa
:040070005803000031
:020000040000fa
:04007400580300002d
:020000040000fa
:040078001c03000065
:020000040000fa
:04007c005803000025
:020000040000fa
:040080005803000021
:020000040000fa
:04008400580300001d
:020000040000fa
:040088005803000019
:020000040000fa
:04008c005803000015
:020000040000fa
:040090005803000011
:020000040000fa
:04009400580300000d
:020000040000fa
:040098005803000009
:020000040000fa
:04009c003a03000023
:020000040000fa
:0400a0005803000001
:020000040000fa
:0400a40058030000fd
:020000040000fa
:0400a80058030000f9
:020000040000fa
:0400ac0058030000f5
:020000040000fa
:0400b00058030000f1
:020000040000fa
:0400b40058030000ed
:020000040000fa
:0400b80058030000e9
:020000040000fa
:0400bc0058030000e5
:020000040000fa
:0400c00058030000e1
:020000040000fa
:0400c40058030000dd
:020000040000fa
:0400c80058030000d9
:020000040000fa
:0400cc0058030000d5
:020000040000fa
:0400d00058030000d1
:020000040000fa
:0400d40058030000cd
:020000040000fa
:0400d80058030000c9
:020000040000fa
:0400dc0058030000c5
:020000040000fa
:0400e00058030000c1
:020000040000fa
:0400e40058030000bd
:020000040000fa
:0400e80058030000b9
:020000040000fa
:0400ec0058030000b5
:020000040000fa
:0400f00058030000b1
:020000040000fa
:0400f40058030000ad
:020000040000fa
:0400f80058030000a9
:020000040000fa
:0400fc0058030000a5
:020000040000fa
:0401000058030000a0
:020000040000fa
:04010400580300009c
:020000040000fa
:040108005803000098
:020000040000fa
:04010c005803000094
:020000040000fa
:040110005803000090
:020000040000fa
:04011400580300008c
:020000040000fa
:040118005803000088
:020000040000fa
:04011c005803000084
:020000040000fa
:040120005803000080
:020000040000fa
:04012400580300007c
:020000040000fa
:040128005803000078
:020000040000fa
:04012c005803000074
:020000040000fa
:040130005803000070
:020000040000fa
:04013400580300006c
:020000040000fa
:040138005803000068
:020000040000fa
:04013c005803000064
:020000040000fa
:040140005803000060
:020000040000fa
:04014400580300005c
:020000040000fa
:040148005803000058
:020000040000fa
:04014c005803000054
:020000040000fa
:040150005803000050
:020000040000fa
:04015400580300004c
:020000040000fa
:040158005803000048
:020000040000fa
:04015c005803000044
:020000040000fa
:040160005803000040
:020000040000fa
:04016400580300003c
:020000040000fa
:040168005803000038
:020000040000fa
:04016c005803000034
:020000040000fa
:040170005803000030
:020000040000fa
:04017400580300002c
:020000040000fa
:040178005803000028
:020000040000fa
:04017c005803000024
:020000040000fa
:040180005803000020
:020000040000fa
:04018400580300001c
:020000040000fa
:040188005803000018
:020000040000fa
:04018c005803000014
:020000040000fa
:040190005803000010
:020000040000fa
:04019400580300000c
:020000040000fa
:040198005803000008
:020000040000fa
:04019c005803000004
:020000040000fa
:0401a0005803000000
:020000040000fa
:0401a40058030000fc
:020000040000fa
:0401a80058030000f8
:020000040000fa
:0401ac0058030000f4
:020000040000fa
:0401b00058030000f0
:020000040000fa
:0401b40058030000ec
:020000040000fa
:0401b80058030000e8
:020000040000fa
:0401bc0058030000e4
:020000040000fa
:0401c00058030000e0
:020000040000fa
:0401c40058030000dc
:020000040000fa
:0401c80058030000d8
:020000040000fa
:0401cc0058030000d4
:020000040000fa
:0401d00058030000d0
:020000040000fa
:0401d40058030000cc
:020000040000fa
:0401d80058030000c8
:020000040000fa
:0401dc0058030000c4
:020000040000fa
:0401e00058030000c0
:020000040000fa
:0401e40058030000bc
:020000040000fa
:0401e80058030000b8
:020000040000fa
:0401ec0058030000b4
:020000040000fa
:0401f00058030000b0
:020000040000fa
:0401f40058030000ac
:020000040000fa
:0401f80058030000a8
:020000040000fa
:0401fc0058030000a4
:020000040000fa
:04020000580300009f
:020000040000fa
:04020400580300009b
:020000040000fa
:040208005803000097
:020000040000fa
:04020c005803000093
:020000040000fa
:04021000580300008f
:020000040000fa
:04021400580300008b
:020000040000fa
:040218005803000087
:020000040000fa
:04021c005803000083
:020000040000fa
:04022000580300007f
:020000040000fa
:04022400580300007b
:020000040000fa
:040228005803000077
:020000040000fa
:04022c005803000073
:020000040000fa
:04023000580300006f
:020000040000fa
:04023400580300006b
:020000040000fa
:040238005803000067
:020000040000fa
:04023c005803000063
:020000040000fa
:04024000580300005f
:020000040000fa
:04024400580300005b
:020000040000fa
:040248005803000057
:020000040000fa
:04024c005803000053
:020000040000fa
:04025000580300004f
:020000040000fa
:04025400580300004b
:020000040000fa
:040258005803000047
:020000040000fa
:04025c005803000043
:020000040000fa
:04026000580300003f
:020000040000fa
:04026400580300003b
:020000040000fa
:040268005803000037
:020000040000fa
:04026c005803000033
:020000040000fa
:04027000580300002f
:020000040000fa
:04027400580300002b
:020000040000fa
:040278005803000027
:020000040000fa
:04027c005803000023
:020000040000fa
:04028000580300001f
:020000040000fa
:100400008f6e21000eff27000e0188000000000003
:10041000000020000000e000020032000001200087
:100420002002880014000700a30007000000e0007d
:1004300003003a0060b321000100200002003700f1
:100440000000200001002000810f70000100320038
:100450000f000700000020000000e0000200320052
:100460000000020000000000d6180200000000009a
:100470000040da000000fe00c00120000000e000a3
:1004800002003200002020009001880000000600d9
:10049000a1028800800478000000eb001f003700f4
:1004a000e284440054a0b4009905ba00e2844400f8
:1004b00054a0b4009906ba00e284440054a0b400e9
:1004c0000006eb00476fde00fd07b200ae018800ba
:1004d000636ce10003003a000ad801000000eb0061
:1004e0000e003700606ce10008003a00004deb00a0
:1004f0000a05e800020039003420ec000af0a000f0
:100500008b05e900f9ff3e00040037006168e10057
:10051000010032000086eb000b00070019c7ba008b
:100520000e04e0001905ba0003003a000a00e000da
:10053000dbff3a0000000600fe07b200ae028800b2
:100540008a047800f5ff37000cd0a300e20f4d00bd
:100550001c00390089027800354dba000a05e80010
:10056000020039003420ec000af0a0008b05e900fd
:100570000f003200254dba000a05e80002003900dc
:100580003420ec000af0a0008b05e90008003200de
:100590000c00e0000600320015cdba000a05e800a4
:1005a000020039003420ec000af0a0008b05e900bd
:1005b0008984e80054a0b4000b00e000e2ff3a0098
:1005c000000006009902ba00055d78008b05e9007d
:1005d000f7ff3200c82ade00055d78008b05e900d0
:1005e000f3ff32000c00e000f1ff320019ddba0029
:1005f000eeff37005e030400000000003600f80044
:10060000809fbe00829fbe00849fbe00869fbe006a
:100610000000fa00ed0b07000008a9000080fa00b6
:100620004f03be004f02be004f01be004f00be0090
:100630003600f900004006003600f800809fbe003a
:10064000829fbe00849fbe00869fbe000000fa000d
:10065000e10b07000288a9000080fa004f03be00ea
:100660004f02be004f01be004f00be003600f90031
:10067000004006003600f800809fbe00829fbe004a
:10068000849fbe00869fbe000000fa00e50b0700b5
:1006900003a8a9000080fa004f03be004f02be006d
:1006a0004f01be004f00be003600f90000400600ba
:1006b0000040da000000fe0000000500881f7800fe
:1006c0000204780008017800c40007000800400018
:1006d0004f047800000006000000fa00881f780030
:1006e00000047800ea8157003fb99700880078003d
:1006f000e0352000070007000000e00002003500a0
:1007000000044400004ceb004f0478000080fa0025
:10071000000006006200fa00889fbe008a1f780071
:1007200000057800810478000204780083007800d6
:1007300080f92f000f004000770107009a979f0073
:10074000a9979f000000eb00b09f9f001885fb0059
:100750008a04fb000a05ea004f55de005002200023
:10076000808f54000d003200e10f55000b003a005d
:100770000a017800880078002f9097009f919700d9
:1007800003000100a0979f000000e0008e003200ef
:100790003f9897000000e800b09f9f000a044400c3
:1007a00050022000808f5400040032000900e00055
:1007b000e6ff3a003f989700840037000000eb0006
:1007c000909f9f00809f9f00f0979f00e0979f0061
:1007d000d0979f00c0979f0007003700216e21002f
:1007e0000100500000004000616d21008080400049
:1007f0005f98970011007000d09f9f0088047800d8
:1008000009047800384578008a00fb00206e21003a
:10081000790007000000e000f0ff3a00a1c2b30039
:10082000814f55000e003a00cf8897000180e90003
:10083000c08f9f0010007800c09f9f000000e00064
:1008400005003d000000ea00c09f9f005f989700f0
:100850000020a000d09f9f000904e8000f0037008f
:10086000c09f9f000000eb0005003700f2ff27004b
:10087000820f500002003200ea00b9000080400000
:100880000904780088047800b900fb000103b10076
:10089000e98f5000f5ff3600c09f9f00e0c2b30013
:1008a000984f1000020032000080eb001900370062
:1008b000a0c2b300d84f100007003a00cf889700bd
:1008c0000180e900c08f9f0010007800a09f9f006a
:1008d0000804e800100037000000eb00a09f9f0014
:1008e0008800780005003700f3ff2700830f5000d1
:1008f00002003200ea00b900000041000104780063
:10090000880078003101fb000203b100e90f5100bb
:10091000f5ff3600a09f9f00984478008900fb00f7
:10092000e06c2100340007000000e000020032000b
:100930000804e800010037008044eb00c97f9f00f5
:1009400080c6b30080cf540004003a0098cf140052
:100950000a003a006640500006003700c0c6b300e7
:1009600080cf540005003a0098cf140003003a00ed
:1009700065404000c07f9f000804e8001801fb00ac
:10098000e3fb2f008f81410081f92f008f80400011
:10099000a0f92f000f004000e10007000000e00078
:1009a00009003a00e1fb2f008f804000a0f92f00e2
:1009b0000f0040001c0007000000e00002003500ae
:1009c0000804e80061ff37000080eb004f05780065
:1009d0004f04be000080fa0000000600800178008d
:1009e00002003700b15978000201e9000200e0007e
:1009f000fcff3a0000000600020037000304e0009c
:100a0000060032000001780002007800b041780052
:100a100081cf5100f9ff3a00010037000001eb00df
:100a200002007800000006000400fa00889fbe0063
:100a30008a9fbe008c1f78000004780001067800b1
:100a4000f80d90007800900080855500080890000f
:100a50008085550018089000808555002808900072
:100a60008085550038089000808555004808900022
:100a7000808555000002220090bf9f0000032300e4
:100a8000a0bf9f00081090000028a30015003a00a6
:100a90000b00e000130034000b0578008a04780096
:100aa000e20f55000100360029002000c801900027
:100ab00009017800ee805700580090000300010003
:100ac000500498000000e0008c003200680890009c
:100ad00009004000600c9800090555004240a9003b
:100ae000eeff3c00780190000200e0000c003400b2
:100af000c80190008c0078005800900003000100ad
:100b0000500498008080eb000000e0007c00320080
:100b1000e80890007800900000804000600c980089
:100b2000880c90000900e0001100340009057800ed
:100b3000e28f5400010036002a002000c801900016
:100b40000a017800ec805700580090000300010073
:100b5000500498000000e00068003200680890002f
:100b60000a004000600c98008a845400edff3700b2
:100b7000180990000200e0000c003400c801900049
:100b8000e800900058009000030001005004980015
:100b90008080eb000000e00059003200e80890007f
:100ba0001808900000804000600c9800a80c90008d
:100bb0000900e0001100340009057800e28f5400bc
:100bc000010036002a002000c80190000a017800c8
:100bd000ec8057005800900003000100500498007a
:100be0000000e00045003200680890000a00400064
:100bf000600c98008a845400edff3700380990009b
:100c00000200e0000e003400e80090001808900098
:100c100080804000c801900058009000030001004f
:100c2000500498008080eb000000e00034003200a7
:100c3000e80890003808900000804000600c9800a0
:100c4000c80c90000900e00011003400090578008c
:100c5000e28f5400010036002a002000c8019000f5
:100c60000a017800ec805700580090000300010052
:100c7000500498000000e000200032006808900056
:100c80000a004000600c98008a845400edff370091
:100c9000081090008000eb000028a300180032002c
:100ca0000b00e000160034008b0478000905780082
:100cb000e28f5400010036002a002000c801900095
:100cc0000a017800ee8057005800900003000100f0
:100cd000500498000000e00008003200680890000e
:100ce0000a004000600c98008a8454004240a90029
:100cf000eeff3c008000eb00010037008080eb003d
:100d0000010078004f0678004f05be004f04be007a
:100d10000080fa00000006000108780000000600cc
:100d2000889fbe008a9fbe00e4c6b300844f510076
:100d3000ce00320010003c006b425200844f510044
:100d40001800320005003c0054c2b300844f51002b
:100d50000601320084c5b3000f00370044c6b3005b
:100d6000844f51001500320065424200844f51000b
:100d700001013a001100370004c7b300844f51004d
:100d8000ed0032005f00350065424200844f5100a3
:100d90005c00320063424200844f5100f6003a008a
:100da000580037001181e90082087800f0009000b7
:100db0008181410092497800f5003700206290005f
:100dc000c5c6b300854f520008003a009102780072
:100dd0006482520084087800940290001402780023
:100de0004fabde00860378001600370015c7b3004e
:100df000854f520003003a00110478006802540045
:100e000005003700a5c6b300854f520008003a0020
:100e1000910478006882540084087800940290005d
:100e200024039000b40390001402780005003700fa
:100e30001182e9008408780014027800cfa2de0055
:100e4000612bb9000498be000690be00a06090001f
:100e500088c6b30088cf50000d00320028c6b3000a
:100e600088cf500004003a000402fb00cfa2de004d
:100e7000612bb9000800370048c7b30088cf500085
:100e8000030032006644440088cf500004003a005a
:100e9000cfa2de00612bb9000498be000690be0010
:100ea000100278009002900020039000b0039000a0
:100eb000f0009000e00f5200e08f5a00e00f5b005e
:100ec000e08f5b0003003d0001824100d5c2b3000a
:100ed0000a003700001290000418a300030032003b
:100ee00001824100b5c2b300040037000408a3002a
:100ef000590032000182410005c2b300054a780062
:100f00005300370020629000c5c6b300854f5200e1
:100f100009003a0011057800640255008408780041
:100f200014047800940490006055b8000802be00d4
:100f30000a03be001600370015c7b300854f5200e4
:100f400003003a00910478006882540005003700dd
:100f5000a5c6b300854f520008003a00110578007d
:100f600068025500840878009402900024039000e1
:100f7000b403900014027800050037001182e900e4
:100f800084087800140278008002eb006033b80017
:100f90000498be000690be00a060900088c6b30012
:100fa00088cf50000d00320028c6b30088cf500013
:100fb00004003a000482fb008002eb006033b800ba
:100fc0000800370048c7b30088cf50000300320044
:100fd0006644440088cf500004003a008002eb00d1
:100fe0006033b8000498be000690be0080109000e8
:100ff0000138a3001800320010027800900290001f
:1010000020039000b0039000e00f5200e08f5a00e0
:10101000e00f5b00e08f5b000f00320081c7b30080
:10102000814f51000300320081c5b300814f510050
:1010300009003a00f00090000182410005c3b300ae
:10104000054a78008100e80001824100024a7800e8
:101050008100e80071009800f0009000818141005b
:1010600063009800824078003e003700a061900045
:10107000c4c6b3001181e90084cf510022003200c0
:101080000a003c006442520084cf51002500320027
:1010900004c2e80084cf51001300320068425200bd
:1010a00084cf51001e003a000a00370044c7b30045
:1010b00084cf51001b0032006642420084cf5100b1
:1010c000180032006942520084cf510014003a00e7
:1010d00005003700820878009200780040589000a0
:1010e000804878002c003700820878009200780051
:1010f000600a9000cfa2de00612bb9008498be0088
:101100008690be00240037008208780092007800a4
:1011100060099000cf91de008288be001e0037007b
:101120001181e90082087800920078006008900040
:1011300080087800180037001181e90082087800e3
:1011400012027800cfa2de00612bb9000498be0025
:101150000690be00f000900081814100630098007d
:1011600081c7b300100007000b003700f0009000ab
:101170008181410005003700f0009000818141002d
:101180000204e00001003a0052c2b3008249780034
:101190008100e800710098000000eb004f05be00e0
:1011a0004f04be0000000600fc874700889fbe0079
:1011b0008a9fbe008c9fbe008e1f780000067800bc
:1011c00080c5b30080cf50000a0032007740400055
:1011d00080cf50000a0032006940400080cf5000ac
:1011e0000b003200d06b210080bf9f00ae002000ba
:1011f0000a003700c26a210082bf9f000600370044
:10120000d36b210083bf9f008e00200003003700b6
:10121000d46b210084bf9f000e0120001c027800c7
:101220009c0290002c039000bc0390000605be00b9
:101230000404be0040c6b30080cf5000030032005b
:101240006540400080cf50000b003a00e00f520094
:10125000e08f5a00e00f5b00e08f5b0006003d006e
:101260006000b8006011b800040450008584580084
:101270000605590087855900e80f57000400320021
:1012800040002000f00f57003c003a0001003700fa
:1012900030002000e00f5400e08f5c00e00f5d00a4
:1012a000e08f5d0004003a00dc0890008d01200012
:1012b0000100e000070032008e00e9008880600035
:1012c0008fba97008180420091407800f1ef9f0033
:1012d0007d012000800078008100e90005003300d6
:1012e0008b05d1000a85d3008984d3000884d300fc
:1012f000f9ff3700089ebe000a96be0013003700b3
:101300008d06e9008e00e900848060000fb9970027
:10131000810041001141780083fd2f008d81410043
:1013200082f77900800178008301e900050033002d
:101330008783d1000683d3008582d3000482d30043
:10134000f9ff3700049ebe000696be001c0278001e
:101350009c0290002c039000bc039000e00f520010
:10136000e08f5a00e00f5b00e08f5b0093003400d9
:101370000d00e000e2ff3c00900037002c60900080
:1013800081c6b300814f50000b00320006003c00c4
:101390000004e00008003200e6c05000814f500019
:1013a00052003a0004003700c1c6b300814f50001c
:1013b0004e003a00230037000800e00004003a0025
:1013c0005c0890008d0120000000e0000700320062
:1013d000110009000e84d8000fba970001004200e6
:1013e00010407800f0ef9f007d01200011000900ff
:1013f0000e84d8000b003700110009000e04d8003d
:101400008d06e9008e81b900020454008fb8970060
:10141000088440009841780082fd2f000d014100b2
:1014200083777900000478000800e00002003200b1
:101430000d00e000f0ff3c00cfc4de00614db900bc
:1014400027003700e00f5400e08f5c0004003a00f2
:101450005c0890008d0120000000e00008003200d0
:101460006171b9000800be00ab0007000fba970019
:101470008000420091407800f1ef9f007d01200044
:101480006171b9000800be00930007000c0037002e
:101490006171b9000800be00800007008d06e900f8
:1014a00080f1b900020454008fba9700088442000a
:1014b0009841780082fd2f000d014100837779006b
:1014c0000004be00e00f5000e08f58000200320020
:1014d0000d00e000eeff3c004fcdde008a057800f5
:1014e000089ebe000a96be0034003700e00f54008c
:1014f000e08f5c00e00f5d00e08f5d0004003a00cb
:101500005c0890008d0120000000e0000a0032001d
:101510006172b900612bb9000800be000a01be006b
:10152000220107000fba9700800042009140780026
:10153000f1ef9f007d0120006172b900612bb900bd
:101540000800be000a01be00110107000e003700ae
:101550006172b900612bb9000800be000a01be002b
:10156000160107008d06e90080f2b900040454005a
:101570008fba9700088442009842780084fd2f00bb
:101580000d02420085777a00009ebe000296be00e2
:101590001c0478009c0490002c059000bc05900071
:1015a000e00f5400e08f5c00e00f5d00e08f5d0015
:1015b000020034000d00e000e5ff3c00e80f57009a
:1015c00010003a000c1090000038a3000d0032000b
:1015d000f78f560006003e0080fd2f000d004000f2
:1015e000ef40780000c3b30080cf50000500320008
:1015f00002c3b30071fd2f008d8040008d06e9000d
:1016000082f7780078811600120e98006c00900026
:1016100083fd2f008f8141008d804100effc07008a
:101620001c089000dc089000810f500006003d006f
:1016300000805000000e98000c1090000040a100a7
:10164000001698000f0037000100e0000d003d007b
:101650008c109000f4806000f08f500009003a0078
:101660007c099000fc009000810051000c09900062
:1016700082805000008050004240a90001003400e8
:10168000000e98004f0778004f06be004f05be00c1
:101690004f04be00cf01b10000000600839f680028
:1016a0000100e00002003d0060001000e080180032
:1016b0000300e00002003d0060011100e08119001c
:1016c000050007004f00e00002003b006000100032
:1016d000e0801800000006006022b800060220002a
:1016e0000000d0008180d2000482d2008582d20026
:1016f0000000a0000202520083825a000300310061
:101700000202420083824a000000a1000603e900b1
:10171000f3ff3a0000000600efff07000400be00e0
:1017200000000600889fbe008a9fbe003004420071
:10173000b0844a0030054b0090854b006000b1003a
:101740000898be000a90be000440e10005c8e10010
:1017500006d0e10007d8e100020031006800400037
:101760001008e8004f05be004f04be000000060050
:10177000889fbe008a9fbe001004780090049000ed
:1017800020059000b00590000418540005985c00f6
:1017900006185d0007985d00110020000440e1007c
:1017a00005c8e10006d0e10007d8e10001003900da
:1017b0008000eb00108810004f05be004f04be00f3
:1017c000000006001200fa00889fbe008a9fbe003b
:1017d0008c9fbe00e0b79f00f1b79f0082bf9f00c3
:1017e00093bf9f000605be000404be000000eb008e
:1017f000d0b79f00c0b79f00b0b79f00a0b79f00b1
:1018000090b79f000006eb005fb19700cfb0970044
:10181000820141003fb097000200e00004003d005b
:10182000370007007e805700beff07000300370027
:10183000330007007e805700cdff0700dfb697001a
:101840000d00e0000c0035006fb29700ffb297006a
:101850000fbb97009fbb97001000200001002000e5
:101860006011b800000272008182720002037300ee
:10187000838373001b0007000c06e80001042000ae
:10188000810f5600e0ff3a000d00e00004003d002b
:101890000802be000a03be007e805700a1ff0700b9
:1018a0005fa897000000e00005003a001fb2970013
:1018b000afb297003fb39700cfb39700090007007e
:1018c0006fb09700ffb097000fb997009fb99700ce
:1018d0004f06be004f05be004f04be000080fa0058
:1018e000000006000100070000000600a4b79f00ea
:1018f000b5b79f00c6b79f00d7b79f00000006008e
:101900004f09de0082817100b3b79f004f01de00f6
:101910008180400082807000a1b79f008fb0970047
:101920004f09de00000040000200700090b79f00e9
:101930007fa897004f01de00818040008280700008
:1019400081b79f000d0007004f3ade000000400005
:1019500004007000f0af9f0008000700040242007e
:1019600085824a0006034b0087834b00dfff070098
:101970000802be000a03be00000006002fb2970056
:10198000bfb297004fb39700dfb397000000060087
:10199000881f780018002000881f780089ff070042
:1019a0008f87e9004f04780000000600801feb00dd
:1019b00084ff07008f87e90000000600889fbe00b3
:1019c0008a9fbe00e00f5000e08f5800e00f5900e2
:1019d000e08f59000c003d006044b8006055b8002d
:1019e0000000540081805c0002015d0083815d0085
:1019f000180020001500070008003d00180007002f
:101a00000004eb00050037000004eb000f000700a6
:101a100002003d001200070018002000dcff070054
:101a20000800e000060032006022b8006033b80011
:101a30000000520081805a0002015b0083815b003c
:101a40004f05be004f04be0000000600e00f52002c
:101a5000e08f5a00e00f5b00e08f5b0000000600a3
:101a60006044b8006055b8000402540085825c00f0
:101a700006035d0087835d0000000600889fbe00ae
:101a80008a9fbe008c1f7800e00f5000e08f580046
:101a9000e00f5900e08f59000d003d006044b80090
:101aa0006055b8000000540081805c0002015d00b8
:101ab00083815d001c0020000820e10009a8e100ee
:101ac0000ab0e1000bb8e1000d003d00080037004e
:101ad0000006eb00e00f5200e08f5a00e00f5b00c1
:101ae000e08f5b0006003d006044b8006055b80020
:101af0000402540085825c0006035d0087835d005c
:101b0000aaff07000c00e000060032006022b800c7
:101b10006033b8000000520081805a0002015b006f
:101b200083815b004f0678004f05be004f04be0066
:041b300000000600ab
:020000040000fa
:101b34005a3300003d25000064200000005a0000d4
:101b4400323d000025640000200000005a310000ee
:101b54003d25000064200000004300003d250000f6
:081b64006420000000000000f5
:020000040000fa
:101b6c000800fa00881f78002007980031079800b9
:101b7c000000eb00000f78000d00370000c0eb00f8
:101b8c002f060700204798002e409000e24f40009f
:101b9c000c003200f07c20009e007800808f5000fa
:101bac0002003a0050c1b3001b0037001e0fe800c2
:101bbc00f07c20009e007800808f5000efff3600f4
:101bcc0001003700000000000000eb00000f78005f
:101bdc00060037002e0090001e04400000c0eb00f1
:101bec0017060700004c78001e0fe8003e0090001e
:101bfc009e007800808f5000f6ff390000c0eb008b
:101c0c000f0607002047980000c0eb000c060700e9
:101c1c00204798000040eb004f0478000080fa0049
:101c2c00000006000800fa00100798002207980030
:101c3c00330798005e02070009d0bf00e24f500046
:101c4c0008003a002e019000be0190004918dd00fa
:101c5c00c710de00810070004910dd0020079800dd
:101c6c0031079800290207000004e00002003a0046
:101c7c0010c1b3001200370080c0eb002e019000a1
:101c8c00be01900010c1b300fb010700a9010700c1
:101c9c00004f78001e4078000004e0000200320083
:101cac001e40780006003700012020001e00900026
:101cbc00abff0700004f7800470207001e4078007a
:101ccc000080fa00000006000a00fa0020079800c5
:101cdc0032079800430798003502070009d0bf006f
:101cec00e24f500008003a003e019000ce019000f7
:101cfc004918dd00c710de00810070004910dd00be
:101d0c003007980041079800000207000004e0002b
:101d1c0002003a0010c1b3004000370080c0eb0055
:101d2c003e019000ce01900080c1b300d2010700ab
:101d3c0080010700204798002e4090000004e0002e
:101d4c00020032002e40900034003700e0cfb30088
:101d5c00bb050700204798000000eb00000f78003f
:101d6c00060037002e0090001e0040001040780046
:101d7c00b3050700204798001e0fe800f01f200055
:101d8c009e007800808f5000f6ff360000c0eb00fc
:101d9c00ab0507002047980000c0eb00a805070022
:101dac002047980000c0eb00a505070020479800cd
:101dbc002e4090000080fb006e0060000080d1007f
:101dcc0020479800d10107000004e00002003a000f
:101ddc0010c1b30011003700ff0107002e40900026
:101dec00e24f500002003a0060c1b3000b00370014
:101dfc002e409000e54f500002003a0070c1b30035
:101e0c00060037002e409000e64f500002003a00ca
:101e1c0080c1b30001003700a0c0b3000080fa00fd
:101e2c00000006000400fa00204798002e409000a5
:101e3c000004e00002003a0010c0b30020479800f4
:101e4c000040eb00004f78000b0037001300070038
:101e5c00104798009e409000a0cab30080cf50005d
:101e6c000a003200dc01070000a8210061002000fc
:101e7c00230607001e4fe8002e4090009e4078007d
:101e8c0080cf5000f1ff3900010037000000000046
:101e9c001e4090000080fa00000006000800fa00c6
:101eac00cd0107000040eb00360507000000eb00f9
:101ebc00000f78000300370000c0eb00600507003e
:101ecc001e0fe800f00420009e007800808f500068
:101edc00f9ff3600b60107000000eb00000f780098
:101eec0010003700a1c4b3006011b8000040eb0033
:101efc00610107000f010700204798002e40900059
:101f0c00e14f50000c003200f07c20009e00780065
:101f1c00808f500002003a0000c1b300030137006b
:101f2c001e0fe800f07c20009e007800808f50008f
:101f3c00ecff3600010037000000000073010700c1
:101f4c000004e00002003a0010c1b300f7003700b3
:101f5c0031c4b300a21a20000300200080c0b300db
:101f6c0045010700f3000700204798002e40900021
:101f7c00e14f50001d0032000000eb00000f780014
:101f8c0015003700610107000004e00002003a0070
:101f9c0010c1b300e5003700c1c7b3006011b80031
:101fac0010c0b30034010700e2000700204798007e
:101fbc002e4090000004e0009c003200f07c2000d9
:101fcc009e007800808f500002003a0020c1b300c0
:101fdc00d60037001e0fe800f07c20009e00780031
:101fec00808f5000e7ff3600930037002e409000a2
:101ffc00e14f50008b003a00eb00070020079800df
:10200c00310798002e00900020479800ae409000b9
:10201c00a0cab30080cf50000200320030c1b30020
:10202c00c20037002e019000be01900000f020008d
:10203c000100200002027800030178008001780082
:10204c000100780003026200000061008000eb00d8
:10205c00c000dd00000020000001be006120b800bf
:10206c000001710081817100481add004810de000a
:10207c0000007200c818de00204798002e40900027
:10208c00e14f50000200320040c1b300a7003700fe
:10209c001e0107000004e00002003a0010c1b3006a
:1020ac00a2003700e1c7b3006011b800a0c3b300b1
:1020bc00f10007009f000700204798002e40900079
:1020cc00e14f5000020032002e4090009700370084
:1020dc00b500070020079800310798002e019000ea
:1020ec00be01900000002800f10f200002027800d1
:1020fc00030178008001780001007800030262007f
:10210c00000061008000eb00c000dd00000020003a
:10211c000001be006120b8000001710081817100d6
:10212c0000002800f10f2000800f5100818f590012
:10213c000200320040c1b3007c003700f3000700fe
:10214c000004e00002003a0010c1b3007700370031
:10215c0011c4b3001200200003002000b0c3b30070
:10216c00c500070073000700204798002e40900020
:10217c00e14f5000020032002e4090006b003700ff
:10218c000000eb00000f780021003700df00070093
:10219c000004e00002003a0010c1b30063003700f5
:1021ac0021c3b3006011b80070c3b300b2000700c4
:1021bc006000070020479800d40007000004e000ee
:1021cc0002003a0010c1b30058003700b1c3b3008d
:1021dc00020020000300240090c2b300a6000700f8
:1021ec0054000700204798002e4090000004e000a7
:1021fc0010003200f07c20009e007800808f500090
:10220c0002003a0020c1b300480037001e0fe8005e
:10221c00f07c20009e007800808f5000dbff3600a1
:10222c00050037002e4090004000370000000000f1
:10223c000100370000000000b40007000004e000bb
:10224c0002003a0010c1b3003800370081c4b3005b
:10225c006011b800b0c3b300870007003500070059
:10226c00204798002e4090000004e000020032004d
:10227c002e4090002d003700a40007000004e00061
:10228c0002003a0010c1b30028003700a1c0b3000f
:10229c00022020000300200000c1b30076000700dc
:1022ac0024000700204798002e4090000004e00016
:1022bc00020032002e4090001c00370093000700f3
:1022cc000004e00002003a0010c1b3001700370010
:1022dc00e1c7b3006011b800a0c3b30066000700eb
:1022ec0014000700204798002e4090000004e000e6
:1022fc00020032002e4090000c0037002a0007002c
:10230c0020079800310798002e009000be00900026
:10231c004e08de000040780009f0b700ae00070060
:10232c0010c0b30017040700a0cab3000080fa0065
:10233c00000006000200fa0000c0eb004004070099
:10234c00004f780000c0eb003d040700004f780000
:10235c001e4078000080fa00000006000400fa001d
:10236c0000c0eb0036040700004f780000c0eb0003
:10237c00330407000080fb001007980000c0eb003e
:10238c002f040700004f78001e009000c800dd00ed
:10239c001e80fb0001007000100798001e009000ca
:1023ac000080fa00000006000600fa0000c0eb00f6
:1023bc00230407000080fb008000eb00008fbe00b0
:1023cc0000c0eb001e040700404798001e00780078
:1023dc009e0090004809dd00c801de0083017100f9
:1023ec004801dd004e4090000080fb008000eb00b7
:1023fc00001f71000197710000c0eb001004070072
:10240c00404798001e0078009e0090004809dd00af
:10241c00c801de00830171004801dd004e409000d0
:10242c000080fb008000eb00001f71000197710021
:10243c0000c0eb0002040700404798001e00780023
:10244c009e0090004809dd00c801de008301710088
:10245c004801dd004e4090000080fb008000eb0046
:10246c00001f7100019771001e0078009e00900003
:10247c000080fa00000006000800fa00004f780007
:10248c001207980023079800614798001e64a0006b
:10249c001e407800ea0307001e009000ae0090007a
:1024ac004808de0000407800e50307001e0090009d
:1024bc00ae0090004008de0000407800e00307000a
:1024cc001e009000ae0090004809dd004800de00c0
:1024dc0000007100c808de0000407800d803070037
:1024ec001e00900000407800d50307006e4090005d
:1024fc000080fb0000004000004078000004a000b9
:10250c00cf0307000080fa00000006000400fa0068
:10251c000000eb00000f78000d00370000c0eb004e
:10252c00c7030700204798002e409000e14f400061
:10253c000c003200f07c20009e007800808f500050
:10254c0002003a000040eb00080037001e0fe800c4
:10255c00f07c20009e007800808f5000efff36004a
:10256c0001003700000000002e4090000080fa00af
:10257c00000006000000fa001700070000fa200017
:10258c00010020005e040700907080006100600074
:10259c00004078000004e0000200320010c0b300dc
:1025ac00010037000040eb000080fa00000006003c
:1025bc000000fa00807080000000a100807088008c
:1025cc00a07080000000a100a07088000000000036
:1025dc000080fa00000006000000fa008070800005
:1025ec000000a00080708800000000000080fa004d
:1025fc00000006000000fa00207080000010a0000f
:10260c00207088000080fa00000006000000fa002c
:10261c00207080000010a100207088000080fa005b
:10262c00000006000000fa00e1ff070000fa20009d
:10263c000100200032040700e7ff070000fa200029
:10264c00010020002e0407009070800061006000e3
:10265c00004078000004e00002003200e0cdb3003e
:10266c00010037000040eb000080fa00000006007b
:10267c000000fa00ebff0700e1cdb300814f5000e2
:10268c00050032000830a9000810a9000850a90064
:10269c00deff0700010037000830a8000080fa00b8
:1026ac00000006000800fa00009fbe000297be0062
:1026bc00000021001e0278009e0290002e03900064
:1026cc00be0390000498be000690be0000002100de
:1026dc009000780040e02000808f50003d003a00d0
:1026ec0000002100704090000080fb0011002000d1
:1026fc000008dd000080ea00800078000070800097
:10270c000080600000708800000021006040900094
:10271c000080fb00110020000008dd000080ea00b2
:10272c0080007800007080000080600000708800dd
:10273c0000002100504090000080fb0011002000a0
:10274c000008dd000080ea00800078000070800046
:10275c000080600000708800000021004040900064
:10276c000080fb00110020000008dd000080ea0062
:10277c00800078000070800000806000007088008d
:10278c0000002100304090000080fb001100200070
:10279c000008dd000080ea008000780000708000f6
:1027ac000080600000708800000021002040900034
:1027bc000080fb00110020000008dd000080ea0012
:1027cc00800078000070800000806000007088003d
:1027dc0041003700000021009000780040e120000b
:1027ec00808f50003c003a000000210070409000a7
:1027fc000080fb00110020000008dd000080ea00d2
:10280c0080007800807080000080600080708800fc
:10281c0000002100604090000080fb0011002000af
:10282c000008dd000080ea008000780080708000e5
:10283c0000806000807088000000210050409000f3
:10284c000080fb00110020000008dd000080ea0081
:10285c0080007800807080000080600080708800ac
:10286c0000002100404090000080fb00110020007f
:10287c000008dd000080ea00800078008070800095
:10288c0000806000807088000000210030409000c3
:10289c000080fb00110020000008dd000080ea0031
:1028ac00800078008070800000806000807088005c
:1028bc0000002100204090000080fb00110020004f
:1028cc000008dd000080ea00800078008070800045
:1028dc00008060008070880000502300c100200040
:1028ec008703070030c0b3009500070000d4200018
:1028fc00310020008203070030c0b30090000700b5
:10290c0000402c00910020007d03070030c0b30074
:10291c008b00070020c0b3008900070080c2b30001
:10292c006601070060c0b300640107000041eb00c2
:10293c008040eb0010c0b3004a01070010c0b30088
:10294c005e0107000080fa00000006000200fa0099
:10295c00004f78001e00fb00610060000040780012
:10296c000004e0000d00320000002100100078008f
:10297c000100210091007800110178000100210074
:10298c00c14090008180fb00130020008118dd0005
:10299c0082807000010878000d00370000002100d3
:1029ac0010007800010021009100780011017800de
:1029bc0001002100c14090008180fb001300200029
:1029cc008118dd008180ea00810061000108780037
:1029dc001e00fb00620060000000e0000d003200f1
:1029ec000000210010007800010021009100780007
:1029fc001101780001002100d14090008180fb0082
:102a0c00130020008118dd0082807000010878001e
:102a1c000d0037000000210010007800010021009b
:102a2c00910078001101780001002100d140900044
:102a3c008180fb00130020008118dd008180ea00fa
:102a4c0081006100010878001e00fb00640060003a
:102a5c000000e0000d0032000000210010007800a2
:102a6c000100210091007800110178000100210083
:102a7c00e14090008180fb00130020008118dd00f4
:102a8c0082807000010878000d00370000002100e2
:102a9c0010007800010021009100780011017800ed
:102aac0001002100e14090008180fb001300200018
:102abc008118dd008180ea00810061000108780046
:102acc001e00fb00680060000000e0000d003200fa
:102adc000000210010007800010021009100780016
:102aec001101780001002100f14090008180fb0071
:102afc00130020008118dd0082807000010878002e
:102b0c000d003700000021001000780001002100aa
:102b1c00910078001101780001002100f140900033
:102b2c008180fb00130020008118dd008180ea0009
:102b3c0081006100010878000080fa0000000600a6
:102b4c000200fa00004f780000002100100078000d
:102b5c000100210091007800110178000100210092
:102b6c00a14090008180fb00130020008118dd0043
:102b7c008180ea0081006100010878001e40780025
:102b8c0072ff0700000021001000780001002100f6
:102b9c00910078001101780001002100b1409000f3
:102bac008180fb00130020008118dd008280700002
:102bbc00010878000010270021002000d002070037
:102bcc000000210010007800010021009100780025
:102bdc001101780001002100b14090008180fb00c0
:102bec00130020008118dd008180ea008100610063
:102bfc00010878000080fa00000006000200fa00cc
:102c0c00004f780000002100100078000100210026
:102c1c00910078001101780001002100a140900082
:102c2c008180fb00130020008118dd008280700081
:102c3c00010878009e00fb00000f2000008060005f
:102c4c004480de000040780040ff070000002100b7
:102c5c00100078000100210091007800110178002b
:102c6c0001002100b14090008180fb001300200086
:102c7c008118dd008280700001087800006420005b
:102c8c00010020009e0207000000210010007800c7
:102c9c000100210091007800110178000100210051
:102cac00b14090008180fb00130020008118dd00f2
:102cbc008180ea0081006100010878009e40780064
:102ccc006fc0600021ff0700000021001000780099
:102cdc000100210091007800110178000100210011
:102cec00b14090008180fb00130020008118dd00b2
:102cfc008280700001087800006420000100200030
:102d0c007f02070000002100100078000100210064
:102d1c00910078001101780001002100b140900071
:102d2c008180fb00130020008118dd008180ea0007
:102d3c0081006100010878000080fa0000000600a4
:102d4c000400fa00100798000000eb00000f780058
:102d5c00060037001e0078009e00900000804000a6
:102d6c0010407800a5ff07001e0fe8001e00780039
:102d7c009e00900000804000104078000004e000ad
:102d8c00f4ff3a000080fa00000006000400fa008c
:102d9c00100798000000eb00000f780006003700c9
:102dac001e0078009e0090000080400010407800cb
:102dbc0092ff07001e0fe8001e0078009e00900096
:102dcc0000804000104078000004e000f4ff3a005e
:102ddc000080fa00000006000200fa00004f7800a4
:102dec00114798001e407800e14f500004003a0053
:102dfc001e409000f047b00030000700170037006d
:102e0c001e407800e24f500005003a009e409000b2
:102e1c00f0cbb30000c04000280007000f003700c3
:102e2c001e407800e34f500005003a009e40900091
:102e3c0030c9b30000c04000200007000700370075
:102e4c001e407800e44f500004003a009e40900071
:102e5c0030cdb30000c04000180007000080fa001d
:102e6c00000006000600fa00204798003147980041
:102e7c004247980080c0b300004f78002e4090006d
:102e8c00e14f500001003a001e24a0003e4090008b
:102e9c00e14f500001003a001e14a0004e4090007b
:102eac00e14f500001003a001e04a0001e407800c3
:102ebc00020007000080fa00000006000200fa0081
:102ecc00004f78009e00fb00000f20000080600087
:102edc004480de000040780019ff07001e40780097
:102eec006f40600016ff07000080fa00000006002b
:102efc000000fa001a01070000a821006100200060
:102f0c00ff01070021c5b300f0c2b3001d0007008c
:102f1c0000a8210061002000f901070031c0b300b6
:102f2c00d0c2b3001700070011c4b300c0c2b30075
:102f3c00140007008040eb00b0c2b3001100070082
:102f4c0041c0b30080c2b3000e00070021c0b30023
:102f5c00a0c2b3000b00070051c1b30050c0b300b6
:102f6c000800070051c1b30090c2b3000500070070
:102f7c0000902000d1032000e10107000080fa003e
:102f8c00000006000200fa00004f7800114798007c
:102f9c001e00fb0000004000004f7800142ea9001a
:102fac001e4078001e0107001e4090001c01070007
:102fbc00142ea8000080fa00000006000400fa009d
:102fcc00204798000040eb00004f78002e40900006
:102fdc000080fb0000004000004078000004a000ce
:102fec0020479800142ea9002e4090000c010700d9
:102ffc00004f78000040eb0009010700004f7800fb
:10300c00142ea8001e4078000080fa000000060074
:10301c001200fa00142ea90030c2b3000001070000
:10302c000000eb00000f7800070037000040eb00b9
:10303c00fb000700804078001e017800680041000a
:10304c00017778001e0fe8001e007800e80f500092
:10305c00f6ff3400142ea800800c20000100200084
:10306c00a70107000000eb00100798002f003700a5
:10307c001e0090000000e00003003a002000200039
:10308c0020079800030037002e00900063004000da
:10309c00200798002e00900068004000ee40780059
:1030ac00614798006e409000624060007047980045
:1030bc007e4090000004e00013003a001e009000d7
:1030cc00e300b900680040006e4078000000fb008f
:1030dc00c800dd001e009000e300b9000000e8000d
:1030ec00680040006e4078000000fb00810070001a
:1030fc001e00900000014000205021000000410003
:10310c0001087800060037001e0090008000400087
:10311c0020502100008040008000eb000108780066
:10312c001e0090000000e800100798001e009000a0
:10313c00e20f5000ceff34000080fa0000000600c1
:10314c000200fa00142ea90030c2b300b40007002c
:10315c000000eb00000f7800070037000040eb0088
:10316c00af00070080407800805021001e00400016
:10317c00014878001e0fe800f00520009e00780042
:10318c00808f5000f5ff3400142ea800800c200016
:10319c00010020005a0107000080fa000000060020
:1031ac000a02fa000040eb00004f78000a70ef00b2
:1031bc000c30ef007101070040e1200010079a006d
:1031cc0040202000f1c0b30001777800502020008f
:1031dc00e1c0b3000177780060202000d1c0b300bb
:1031ec000177780070202000c1c0b300017778000f
:1031fc0080202000b1c0b30001777800902020001f
:10320c00a1c0b300017778001e009200ae009200be
:10321c003e019200ce01920022fd07008040eb009f
:10322c00d0c2b30057ff07000068290081092000b5
:10323c00330107002070800000407800614060007e
:10324c000004a200614060000080fb00610060008f
:10325c00217080000100a100010070002070880026
:10326c000ad0bf000004e0002b0032008050210087
:10327c00104f78009e00fb000e00e800811f7800c4
:10328c00a1d92800811f780010f50700e4875700aa
:10329c0011c0b30020c0b300cffe07000e00e80041
:1032ac00a7fe070090502100104f78009e00fb00f5
:1032bc000e00e800811f780011da2800811f7800c9
:1032cc0002f50700e487570081c0b30010c0b300bb
:1032dc00c1fe07000e00e80099fe0700a050210077
:1032ec00104f78009e00fb000e00e800811f780054
:1032fc0081da2800811f7800f4f40700e487570076
:10330c0011c0b30010c0b300b3fe07000e00e800fc
:10331c008bfe07000a70ef00618080000e00e80051
:10332c00811f7800f1da2800811f7800e7f407008c
:10333c00e487570081c0b30020c0b300a6fe07008d
:10334c000e00e8007efe07000068290081092000bd
:10335c00eb00070010c0b300d8fe0700b5ff370024
:10336c000000fa0041e2a900a0132000101288000e
:10337c004422ef0000002800001288000080fa00b0
:10338c00000006000200fa00004f780041e2a9009c
:10339c001e407800e14f500003003a00a0132000bb
:1033ac0010128800020037008013200010128800d1
:1033bc004422ef0000002800001288000080fa0070
:1033cc00000006000400fa00000f780011079800b6
:1033dc000000000000128000620060000000e000ad
:1033ec00fcff3a001e007800104078000080fb00c3
:1033fc004012880000000000001280006100600094
:10340c000000e000fcff3200401280008040780099
:10341c001e009000014878000080fa0000000600b1
:10342c000400fa00204798000e80e8008e00780017
:10343c00e4ff07001e4078000080fa000000060040
:10344c000400fa00204798000e80e8008e007800f7
:10345c00dcff07001e4078000080fa000000060028
:10346c000000fa000e2eef001e2eef00042eef00cf
:10347c0020002000a070880000012000007088004f
:10348c0000212000807088000c2eef001c2eef0015
:10349c000a2eef001a2eef00062eef00162eef006c
:1034ac00113a8000f00b20000081600060042000c5
:1034bc007105200023742000804978008149780030
:1034cc008249780001358000f00f28008080600070
:1034dc00004022000100700000358800113580008a
:1034ec0000f82f00008060004001b3001035880008
:1034fc00103a8000000178000260a00060042000f7
:10350c0071052000237420008049780081497800df
:10351c00824978000080fa00000006000000fa00e2
:10352c00e0002000303a8800213a8000f0f32f00b0
:10353c0000806000203a8800213a800000fe2f00b5
:10354c0000806000203a88003200200080072000b4
:10355c00a10920003374200080497800814978004b
:10356c0082497800103a800012002000600420008c
:10357c00710520002374200080497800814978006f
:10358c008249780000000000113a800000002700fa
:10359c008080600000002300808f5000faff3a000a
:1035ac0000000000113a8000000220000080600042
:1035bc000000e000fbff32000080fa000000060073
:1035cc000000fa000080fa00000006000000fa007b
:1035dc0010c0b3000af0b7000c30ef002070800070
:1035ec000000d100614060000004a2006140600056
:1035fc000080fb0061006000000040002170800032
:10360c000110a1000100700020708800ccfe0700a2
:10361c000080fa00000006000000fa0060808000c4
:10362c000000e800608088000080fa0000000600be
:10363c000000fa000008a900c208a9002008a9008f
:10364c000288a900c228a9002288a80003a8a90002
:10365c00c248a80023a8a8000080fa0000000600b9
:020000040000fa
:10366c0002150000aa0100008000000000100000fc
:10367c0008000000800000000e100000f4040000a0
:10368c008000000008100000060000008000000010
:10369c00ce1600001a00000082000000686a6c0060
:1036ac00747a4c00000001000002000004000800c5
:1036bc0000100000000020002b2d23003000000023
:1036cc00ac160000220000008200000030313200f5
:1036dc003334350036373800394142004344450015
:1036ec00460030003132330034353600373839007b
:1036fc006162630064656600000000000000000069
:020000040000fa
:10370c00f03fb1000180b10006003500ee03090066
:10371c0000000000403fb1000180b100fbff3d0004
:10372c001000b000203fb0000200350000800900fe
:08373c0000000000000006007f
:020000040000fa
:103744000000fa005142800080ff2f0000806000da
:103754000000a0005042880071428000f0f82f0061
:10376400008060000040a000704288000080fa00e1
:10377400000006000000fa00c3e8a8000080fa0078
:10378400000006000000fa0066ff070036ff07008d
:10379400ebff0700a8ff0700f6ff0700d6fd0700b0
:0837a4000080fa00000006009d
:020000040000fa
:020000040005f5
:045fe000cfff0000ef
:020000040000fa
:020000040005f5
:045fe400ffff0000bb
:020000040000fa
:020000040005f5
:045fe8007fff000037
:020000040000fa
:020000040005f5
:045fec005eff000054
:020000040000fa
:020000040005f5
:045ff00038ff000076
:020000040000fa
:020000040005f5
:045ff400ffff0000ab
:00000001FF
