:020000040000fa
:080000000002040000000000f2
:020000040000fa
:04000800540300009d
:020000040000fa
:04000c005403000099
:020000040000fa
:040010005403000095
:020000040000fa
:040014005403000091
:020000040000fa
:04001800540300008d
:020000040000fa
:04001c005403000089
:020000040000fa
:040020005403000085
:020000040000fa
:040024005403000081
:020000040000fa
:04002800fa020000d8
:020000040000fa
:04002c005403000079
:020000040000fa
:040030005403000075
:020000040000fa
:040034005403000071
:020000040000fa
:04003800540300006d
:020000040000fa
:04003c005403000069
:020000040000fa
:040040005403000065
:020000040000fa
:040044005403000061
:020000040000fa
:04004800540300005d
:020000040000fa
:04004c005403000059
:020000040000fa
:040050005403000055
:020000040000fa
:040054005403000051
:020000040000fa
:04005800540300004d
:020000040000fa
:04005c005403000049
:020000040000fa
:040060005403000045
:020000040000fa
:040064005403000041
:020000040000fa
:04006800540300003d
:020000040000fa
:04006c005403000039
:020000040000fa
:040070005403000035
:020000040000fa
:040074005403000031
:020000040000fa
:040078001803000069
:020000040000fa
:04007c005403000029
:020000040000fa
:040080005403000025
:020000040000fa
:040084005403000021
:020000040000fa
:04008800540300001d
:020000040000fa
:04008c005403000019
:020000040000fa
:040090005403000015
:020000040000fa
:040094005403000011
:020000040000fa
:04009800540300000d
:020000040000fa
:04009c003603000027
:020000040000fa
:0400a0005403000005
:020000040000fa
:0400a4005403000001
:020000040000fa
:0400a80054030000fd
:020000040000fa
:0400ac0054030000f9
:020000040000fa
:0400b00054030000f5
:020000040000fa
:0400b40054030000f1
:020000040000fa
:0400b80054030000ed
:020000040000fa
:0400bc0054030000e9
:020000040000fa
:0400c00054030000e5
:020000040000fa
:0400c40054030000e1
:020000040000fa
:0400c80054030000dd
:020000040000fa
:0400cc0054030000d9
:020000040000fa
:0400d00054030000d5
:020000040000fa
:0400d40054030000d1
:020000040000fa
:0400d80054030000cd
:020000040000fa
:0400dc0054030000c9
:020000040000fa
:0400e00054030000c5
:020000040000fa
:0400e40054030000c1
:020000040000fa
:0400e80054030000bd
:020000040000fa
:0400ec0054030000b9
:020000040000fa
:0400f00054030000b5
:020000040000fa
:0400f40054030000b1
:020000040000fa
:0400f80054030000ad
:020000040000fa
:0400fc0054030000a9
:020000040000fa
:0401000054030000a4
:020000040000fa
:0401040054030000a0
:020000040000fa
:04010800540300009c
:020000040000fa
:04010c005403000098
:020000040000fa
:040110005403000094
:020000040000fa
:040114005403000090
:020000040000fa
:04011800540300008c
:020000040000fa
:04011c005403000088
:020000040000fa
:040120005403000084
:020000040000fa
:040124005403000080
:020000040000fa
:04012800540300007c
:020000040000fa
:04012c005403000078
:020000040000fa
:040130005403000074
:020000040000fa
:040134005403000070
:020000040000fa
:04013800540300006c
:020000040000fa
:04013c005403000068
:020000040000fa
:040140005403000064
:020000040000fa
:040144005403000060
:020000040000fa
:04014800540300005c
:020000040000fa
:04014c005403000058
:020000040000fa
:040150005403000054
:020000040000fa
:040154005403000050
:020000040000fa
:04015800540300004c
:020000040000fa
:04015c005403000048
:020000040000fa
:040160005403000044
:020000040000fa
:040164005403000040
:020000040000fa
:04016800540300003c
:020000040000fa
:04016c005403000038
:020000040000fa
:040170005403000034
:020000040000fa
:040174005403000030
:020000040000fa
:04017800540300002c
:020000040000fa
:04017c005403000028
:020000040000fa
:040180005403000024
:020000040000fa
:040184005403000020
:020000040000fa
:04018800540300001c
:020000040000fa
:04018c005403000018
:020000040000fa
:040190005403000014
:020000040000fa
:040194005403000010
:020000040000fa
:04019800540300000c
:020000040000fa
:04019c005403000008
:020000040000fa
:0401a0005403000004
:020000040000fa
:0401a4005403000000
:020000040000fa
:0401a80054030000fc
:020000040000fa
:0401ac0054030000f8
:020000040000fa
:0401b00054030000f4
:020000040000fa
:0401b40054030000f0
:020000040000fa
:0401b80054030000ec
:020000040000fa
:0401bc0054030000e8
:020000040000fa
:0401c00054030000e4
:020000040000fa
:0401c40054030000e0
:020000040000fa
:0401c80054030000dc
:020000040000fa
:0401cc0054030000d8
:020000040000fa
:0401d00054030000d4
:020000040000fa
:0401d40054030000d0
:020000040000fa
:0401d80054030000cc
:020000040000fa
:0401dc0054030000c8
:020000040000fa
:0401e00054030000c4
:020000040000fa
:0401e40054030000c0
:020000040000fa
:0401e80054030000bc
:020000040000fa
:0401ec0054030000b8
:020000040000fa
:0401f00054030000b4
:020000040000fa
:0401f40054030000b0
:020000040000fa
:0401f80054030000ac
:020000040000fa
:0401fc0054030000a8
:020000040000fa
:0402000054030000a3
:020000040000fa
:04020400540300009f
:020000040000fa
:04020800540300009b
:020000040000fa
:04020c005403000097
:020000040000fa
:040210005403000093
:020000040000fa
:04021400540300008f
:020000040000fa
:04021800540300008b
:020000040000fa
:04021c005403000087
:020000040000fa
:040220005403000083
:020000040000fa
:04022400540300007f
:020000040000fa
:04022800540300007b
:020000040000fa
:04022c005403000077
:020000040000fa
:040230005403000073
:020000040000fa
:04023400540300006f
:020000040000fa
:04023800540300006b
:020000040000fa
:04023c005403000067
:020000040000fa
:040240005403000063
:020000040000fa
:04024400540300005f
:020000040000fa
:04024800540300005b
:020000040000fa
:04024c005403000057
:020000040000fa
:040250005403000053
:020000040000fa
:04025400540300004f
:020000040000fa
:04025800540300004b
:020000040000fa
:04025c005403000047
:020000040000fa
:040260005403000043
:020000040000fa
:04026400540300003f
:020000040000fa
:04026800540300003b
:020000040000fa
:04026c005403000037
:020000040000fa
:040270005403000033
:020000040000fa
:04027400540300002f
:020000040000fa
:04027800540300002b
:020000040000fa
:04027c005403000027
:020000040000fa
:040280005403000023
:020000040000fa
:100400000f5421000eff28000e018800000000009c
:10041000000020000000e000020032000001200087
:100420002002880014000700a10007000000e0007f
:1004300003003a00e0c6200001002000020037005f
:100440000000200001002000810f70000100320038
:100450000f000700000020000000e0000200320052
:100460000000020000000000d40b020000000000a9
:100470000040da000000fe00200020000000e00044
:1004800002003200100020009001880000000600e9
:10049000a1028800800478000000eb001f003700f4
:1004a000e284440054a0b4009905ba00e2844400f8
:1004b00054a0b4009906ba00e284440054a0b400e9
:1004c0000006eb00476fde00fd07b200ae018800ba
:1004d000636ce10003003a000ad801000000eb0061
:1004e0000e003700606ce10008003a00004deb00a0
:1004f0000a05e800020039003420ec000af0a000f0
:100500008b05e900f9ff3e00040037006168e10057
:10051000010032000086eb000b00070019c7ba008b
:100520000e04e0001905ba0003003a000a00e000da
:10053000dbff3a0000000600fe07b200ae028800b2
:100540008a047800f5ff37000cd0a300e20f4d00bd
:100550001c00390089027800354dba000a05e80010
:10056000020039003420ec000af0a0008b05e900fd
:100570000f003200254dba000a05e80002003900dc
:100580003420ec000af0a0008b05e90008003200de
:100590000c00e0000600320015cdba000a05e800a4
:1005a000020039003420ec000af0a0008b05e900bd
:1005b0008984e80054a0b4000b00e000e2ff3a0098
:1005c000000006009902ba00055d78008b05e9007d
:1005d000f7ff3200c82ade00055d78008b05e900d0
:1005e000f3ff32000c00e000f1ff320019ddba0029
:1005f000eeff37003600f800809fbe00829fbe00ed
:10060000849fbe00869fbe000000fa003e040700e3
:100610000008a9000080fa004f03be004f02be0090
:100620004f01be004f00be003600f900004006003a
:100630003600f800809fbe00829fbe00849fbe00ef
:10064000869fbe000000fa00320407000288a9005d
:100650000080fa004f03be004f02be004f01be00f3
:100660004f00be003600f900004006003600f800da
:10067000809fbe00829fbe00849fbe00869fbe00fa
:100680000000fa003604070003a8a9000080fa0061
:100690004f03be004f02be004f01be004f00be0020
:1006a0003600f900004006000040da000000fe00bd
:0406b0000000050041
:020000040000fa
:1006b4000800fa00881f7800200798003107980086
:1006c4000000eb00000f78000d00370000c0eb00c5
:1006d400ac030700204798002e409000e24f4000f2
:1006e4000c003200f07c20009e007800808f5000c7
:1006f40002003a0050c1b3001b0037001e0fe8008f
:10070400f07c20009e007800808f5000efff3600c0
:1007140001003700000000000000eb00000f78002b
:10072400060037002e0090001e04400000c0eb00bd
:1007340094030700004c78001e0fe8003e00900070
:100744009e007800808f5000f6ff390000c0eb0057
:100754008c0307002047980000c0eb0089030700c2
:10076400204798000040eb004f0478000080fa0016
:10077400000006000800fa001007980022079800fd
:10078400330798005e02070001d0bf00e24f50001b
:1007940008003a002e019000be0190004918dd00c7
:1007a400c710de00810070004910dd0020079800aa
:1007b40031079800290207000004e00002003a0013
:1007c40010c1b3001200370080c0eb002e0190006e
:1007d400be01900010c1b300fb010700a90107008e
:1007e400004f78001e4078000004e0000200320050
:1007f4001e40780006003700012020001e009000f3
:10080400abff0700004f7800470207001e40780046
:100814000080fa00000006000a00fa002007980091
:1008240032079800430798003502070001d0bf0043
:10083400e24f500008003a003e019000ce019000c3
:100844004918dd00c710de00810070004910dd008a
:100854003007980041079800000207000004e000f8
:1008640002003a0010c1b3004000370080c0eb0022
:100874003e019000ce01900080c1b300d201070078
:1008840080010700204798002e4090000004e000fb
:10089400020032002e40900034003700e0cfb30055
:1008a40038030700204798000000eb00000f780091
:1008b400060037002e0090001e0040001040780013
:1008c40030030700204798001e0fe800f01f2000a7
:1008d4009e007800808f5000f6ff360000c0eb00c9
:1008e400280307002047980000c0eb0025030700f9
:1008f4002047980000c0eb0022030700204798001f
:100904002e4090000080fb006e0060000080d1004b
:1009140020479800d10107000004e00002003a00db
:1009240010c1b30011003700ff0107002e409000f2
:10093400e24f500002003a0060c1b3000b003700e0
:100944002e409000e54f500002003a0070c1b30001
:10095400060037002e409000e64f500002003a0097
:1009640080c1b30001003700a0c0b3000080fa00ca
:10097400000006000400fa00204798002e40900072
:100984000004e00002003a0010c0b30020479800c1
:100994000040eb00004f78000b0037001300070005
:1009a400104798009e409000a0cab30080cf50002a
:1009b4000a003200dc01070000a8210061002000c9
:1009c4009d0307001e4fe8002e4090009e407800d3
:1009d40080cf5000f1ff3900010037000000000013
:1009e4001e4090000080fa00000006000800fa0093
:1009f400cd0107000040eb00b30207000000eb004c
:100a0400000f78000300370000c0eb00dd02070090
:100a14001e0fe800f00420009e007800808f500034
:100a2400f9ff3600b60107000000eb00000f780064
:100a340010003700a1c4b3006011b8000040eb00ff
:100a4400610107000f010700204798002e40900025
:100a5400e14f50000c003200f07c20009e00780032
:100a6400808f500002003a0000c1b3000301370038
:100a74001e0fe800f07c20009e007800808f50005c
:100a8400ecff36000100370000000000730107008e
:100a94000004e00002003a0010c1b300f700370080
:100aa40031c4b300a21a20000300200080c0b300a8
:100ab40045010700f3000700204798002e409000ee
:100ac400e14f50001d0032000000eb00000f7800e1
:100ad40015003700610107000004e00002003a003d
:100ae40010c1b300e5003700c1c7b3006011b800fe
:100af40010c0b30034010700e2000700204798004b
:100b04002e4090000004e0009c003200f07c2000a5
:100b14009e007800808f500002003a0020c1b3008c
:100b2400d60037001e0fe800f07c20009e007800fd
:100b3400808f5000e7ff3600930037002e4090006e
:100b4400e14f50008b003a00eb00070020079800ab
:100b5400310798002e00900020479800ae40900086
:100b6400a0cab30080cf50000200320030c1b300ed
:100b7400c20037002e019000be01900000f020005a
:100b8400010020000202780003017800800178004f
:100b94000100780003026200000061008000eb00a5
:100ba400c000dd00000020000001be006120b8008c
:100bb4000001710081817100481add004810de00d7
:100bc40000007200c818de00204798002e409000f4
:100bd400e14f50000200320040c1b300a7003700cb
:100be4001e0107000004e00002003a0010c1b30037
:100bf400a2003700e1c7b3006011b800a0c3b3007e
:100c0400f10007009f000700204798002e40900045
:100c1400e14f5000020032002e4090009700370050
:100c2400b500070020079800310798002e019000b6
:100c3400be01900000002800f10f2000020278009d
:100c4400030178008001780001007800030262004b
:100c5400000061008000eb00c000dd000000200007
:100c64000001be006120b8000001710081817100a3
:100c740000002800f10f2000800f5100818f5900df
:100c84000200320040c1b3007c003700f3000700cb
:100c94000004e00002003a0010c1b30077003700fe
:100ca40011c4b3001200200003002000b0c3b3003d
:100cb400c500070073000700204798002e409000ed
:100cc400e14f5000020032002e4090006b003700cc
:100cd4000000eb00000f780021003700df00070060
:100ce4000004e00002003a0010c1b30063003700c2
:100cf40021c3b3006011b80070c3b300b200070091
:100d04006000070020479800d40007000004e000ba
:100d140002003a0010c1b30058003700b1c3b30059
:100d2400020020000300240090c2b300a6000700c4
:100d340054000700204798002e4090000004e00073
:100d440010003200f07c20009e007800808f50005c
:100d540002003a0020c1b300480037001e0fe8002b
:100d6400f07c20009e007800808f5000dbff36006e
:100d7400050037002e4090004000370000000000be
:100d84000100370000000000b40007000004e00088
:100d940002003a0010c1b3003800370081c4b30028
:100da4006011b800b0c3b300870007003500070026
:100db400204798002e4090000004e000020032001a
:100dc4002e4090002d003700a40007000004e0002e
:100dd40002003a0010c1b30028003700a1c0b300dc
:100de400022020000300200000c1b30076000700a9
:100df40024000700204798002e4090000004e000e3
:100e0400020032002e4090001c00370093000700bf
:100e14000004e00002003a0010c1b30017003700dc
:100e2400e1c7b3006011b800a0c3b30066000700b7
:100e340014000700204798002e4090000004e000b2
:100e4400020032002e4090000c0037002a000700f8
:100e540020079800310798002e009000be009000f3
:100e64004e08de000040780001f0b700ae00070035
:100e740010c0b30094010700a0cab3000080fa00b8
:100e8400000006000200fa0000c0eb00bd010700ec
:100e9400004f780000c0eb00ba010700004f780053
:100ea4001e4078000080fa00000006000400fa00ea
:100eb40000c0eb00b3010700004f780000c0eb0056
:100ec400b00107000080fb001007980000c0eb0091
:100ed400ac010700004f78001e009000c800dd0040
:100ee4001e80fb0001007000100798001e00900097
:100ef4000080fa00000006000600fa0000c0eb00c3
:100f0400a00107000080fb008000eb00008fbe0002
:100f140000c0eb009b010700404798001e007800ca
:100f24009e0090004809dd00c801de0083017100c5
:100f34004801dd004e4090000080fb008000eb0083
:100f4400001f71000197710000c0eb008d010700c4
:100f5400404798001e0078009e0090004809dd007c
:100f6400c801de00830171004801dd004e4090009d
:100f74000080fb008000eb00001f710001977100ee
:100f840000c0eb007f010700404798001e00780076
:100f94009e0090004809dd00c801de008301710055
:100fa4004801dd004e4090000080fb008000eb0013
:100fb400001f7100019771001e0078009e009000d0
:100fc4000080fa00000006000800fa00004f7800d4
:100fd4001207980023079800614798001e64a00038
:100fe4001e407800670107001e009000ae009000cc
:100ff4004808de0000407800620107001e009000ef
:10100400ae0090004008de00004078005d0107005b
:101014001e009000ae0090004809dd004800de008c
:1010240000007100c808de00004078005501070088
:101034001e00900000407800520107006e409000ae
:101044000080fb0000004000004078000004a00085
:101054004c0107000080fa00000006000400fa00ba
:101064000000eb00000f78000d00370000c0eb001b
:1010740044010700204798002e409000e14f4000b3
:101084000c003200f07c20009e007800808f50001d
:1010940002003a000040eb00080037001e0fe80091
:1010a400f07c20009e007800808f5000efff360017
:1010b40001003700000000002e4090000080fa007c
:1010c400000006000000fa001700070000fa2000e4
:1010d40001002000d80107009070800061006000ca
:1010e400004078000004e0000200320010c0b300a9
:1010f400010037000040eb000080fa000000060009
:101104000000fa00807080000000a1008070880058
:10111400a07080000000a100a07088000000000002
:101124000080fa00000006000000fa0080708000d1
:101134000000a00080708800000000000080fa0019
:10114400000006000000fa00207080000010a000db
:10115400207088000080fa00000006000000fa00f9
:10116400207080000010a100207088000080fa0028
:10117400000006000000fa00e1ff070000fa20006a
:1011840001002000ac010700e7ff070000fa20007f
:1011940001002000a8010700907080006100600039
:1011a400004078000004e00002003200e0cdb3000b
:1011b400010037000040eb000080fa000000060048
:1011c4000000fa00ebff0700e1cdb300814f5000af
:1011d400050032000030a9000010a9000050a90049
:1011e400deff0700010037000030a8000080fa008d
:1011f400000006000000fa00aa00070000a8210071
:10120400610020008c01070021c5b300f0c2b300c7
:101214001d00070000a821006100200086010700ce
:1012240031c0b300d0c2b3001700070011c4b3002b
:10123400c0c2b300140007008040eb00b0c2b3008a
:101244001100070041c0b30080c2b3000e000700c4
:1012540021c0b300a0c2b3000b00070051c1b3000a
:1012640050c0b3000800070051c1b30090c2b300de
:101274000500070000902000d10320006e01070044
:101284000080fa00000006000200fa00004f780017
:10129400114798001e00fb0000004000004f78003a
:1012a400142ea9001e407800ae0007001e409000d6
:1012b400ac000700142ea8000080fa00000006000d
:1012c4000400fa00204798000040eb00004f78002b
:1012d4002e4090000080fb00000040000040780099
:1012e4000004a00020479800142ea9002e4090006e
:1012f4009c000700004f78000040eb0099000700b5
:10130400004f7800142ea8001e4078000080fa00d8
:10131400000006001200fa00142ea90030c2b30027
:10132400900007000000eb00000f78000700370072
:101334000040eb008b000700804078001e0178001d
:1013440068004100017778001e0fe8001e00780055
:10135400e80f5000f6ff3400142ea800800c200083
:1013640001002000340107000000eb001007980082
:101374002f0037001e0090000000e00003003a0038
:101384002000200020079800030037002e00900062
:1013940063004000200798002e0090006800400081
:1013a400ee407800614798006e4090006240600013
:1013b400704798007e4090000004e00013003a005b
:1013c4001e009000e300b900680040006e40780001
:1013d4000000fb00c800dd001e009000e300b9001f
:1013e4000000e800680040006e4078000000fb0048
:1013f400810070001e00900000014000a04f2100f9
:101404000000410001087800060037001e0090002b
:1014140080004000a04f2100008040008000eb00cd
:10142400010878001e0090000000e80010079800f2
:101434001e009000e20f5000ceff34000080fa003e
:10144400000006000200fa00142ea90030c2b30006
:10145400440007000000eb00000f7800070037008d
:101464000040eb003f00070080407800005021005e
:101474001e004000014878001e0fe800e003200031
:101484009e007800808f5000f5ff3400142ea800d1
:10149400800c200001002000e70007000080fa0013
:1014a400000006000000fa0041e2a900a013200099
:1014b400101288004422ef00000028000012880067
:1014c4000080fa00000006000200fa00004f7800d5
:1014d40041e2a9001e407800e14f500003003a00a9
:1014e400a01320001012880002003700801320008f
:1014f400101288004422ef00000028000012880027
:101504000080fa00000006000400fa00000f7800d2
:1015140011079800000000000012800062006000c3
:101524000000e000fcff3a001e0078001040780044
:101534000080fb00401288000000000000128000c0
:10154400610060000000e000fcff320040128000f7
:10155400804078001e009000014878000080fa0066
:10156400000006000400fa00204798000e80e800fe
:101574008e007800e4ff07001e4078000080fa0027
:10158400000006000400fa00204798000e80e800de
:101594008e007800dcff07001e4078000080fa000f
:1015a400000006000000fa000e2eef001e2eef00d1
:1015b400042eef0020002000a0708800000120000d
:1015c4000070880000212000807088000c2eef003d
:1015d4001c2eef000a2eef001a2eef00062eef004d
:1015e400162eef00113a8000f00b200000816000fd
:1015f40060042000710520002374200080497800d5
:10160400814978008249780001358000f00f280074
:1016140080806000004022000100700000358800d6
:101624001135800000f82f00008060004001b300f5
:1016340010358800103a8000000178000260a00094
:101644006004200071052000237420008049780084
:1016540081497800824978000080fa000000060081
:101664000000fa00e0002000303a8800213a8000af
:10167400f0f32f0000806000203a8800213a8000b7
:1016840000fe2f0000806000203a88003200200015
:1016940080072000a10920003374200080497800cd
:1016a4008149780082497800103a800012002000b5
:1016b4006004200071052000237420008049780014
:1016c400814978008249780000000000113a8000c6
:1016d400000027008080600000002300808f5000fd
:1016e400faff3a0000000000113a800000022000d6
:1016f400008060000000e000fbff32000080fa0080
:10170400000006000000fa000080fa000000060055
:101714000000fa0010c0b30002f0b7000430ef007c
:10172400207080000000d100614060000004a2002d
:10173400614060000080fb00610060000000400028
:10174400217080000110a100010070002070880049
:101754003cff07000080fa00000006000000fa00c9
:10176400208080000000e800208088000080fa00cb
:10177400000006000000fa000008a900c208a90041
:101784002008a9000288a900c228a9002288a8006c
:1017940003a8a900c248a80023a8a8000080fa0052
:1017a400000006000200fa000040eb00004f780041
:1017b4000270ef000430ef003e0007008040eb00b1
:1017c400d0c2b300b0fe07000068290081092000e0
:1017d400190007002070800000407800614060001c
:1017e4000004a200614060000080fb006100600012
:1017f400217080000100a1000100700020708800a9
:1018040002d0bf000004e0000700320000502100b5
:10181400104f780010502100104f78002050210004
:10182400104f78000270ef00006829008109200041
:0818340001000700e7ff370087
:020000040000fa
:10183c00f03fb1000180b10006003500ee03090055
:10184c0000000000403fb1000180b100fbff3d00f3
:10185c001000b000203fb0000200350000800900ed
:08186c0000000000000006006e
:020000040000fa
:101874000000fa005142800080ff2f0000806000c9
:101884000000a0005042880071428000f0f82f0050
:10189400008060000040a000704288000080fa00d0
:1018a400000006000000fa00c3e8a8000080fa0067
:1018b400000006000000fa0069ff070039ff070076
:1018c400ebff0700abff0700f6ff070049fe070028
:0818d4000080fa00000006008c
:020000040000fa
:1018dc00fa14000046000000800000000610000012
:1018ec00f40400008000000000100000060000005e
:0818fc00800000000000000064
:020000040000fa
:020000040005f5
:045fe000cfff0000ef
:020000040000fa
:020000040005f5
:045fe400ffff0000bb
:020000040000fa
:020000040005f5
:045fe8007fff000037
:020000040000fa
:020000040005f5
:045fec005eff000054
:020000040000fa
:020000040005f5
:045ff00038ff000076
:020000040000fa
:020000040005f5
:045ff400ffff0000ab
:00000001FF
